{
  "contractName": "EnergyTrading",
  "abi": [
    {
      "inputs": [],
      "stateMutability": "nonpayable",
      "type": "constructor"
    },
    {
      "anonymous": false,
      "inputs": [
        {
          "components": [
            {
              "internalType": "uint256",
              "name": "id",
              "type": "uint256"
            },
            {
              "internalType": "address",
              "name": "buyer",
              "type": "address"
            },
            {
              "internalType": "uint256",
              "name": "amountEnergyNeeded",
              "type": "uint256"
            },
            {
              "internalType": "uint256",
              "name": "numOfMins",
              "type": "uint256"
            },
            {
              "internalType": "uint256",
              "name": "sellingPrice",
              "type": "uint256"
            },
            {
              "internalType": "address",
              "name": "seller",
              "type": "address"
            },
            {
              "internalType": "uint256",
              "name": "bidAt",
              "type": "uint256"
            },
            {
              "internalType": "uint256",
              "name": "biddingEndedAt",
              "type": "uint256"
            },
            {
              "internalType": "enum Status",
              "name": "status",
              "type": "uint8"
            }
          ],
          "indexed": false,
          "internalType": "struct Trade",
          "name": "trade",
          "type": "tuple"
        }
      ],
      "name": "TradeClosed",
      "type": "event"
    },
    {
      "inputs": [],
      "name": "admin",
      "outputs": [
        {
          "internalType": "address",
          "name": "",
          "type": "address"
        }
      ],
      "stateMutability": "view",
      "type": "function",
      "constant": true
    },
    {
      "inputs": [
        {
          "internalType": "uint256",
          "name": "_amountEnergyNeeded",
          "type": "uint256"
        },
        {
          "internalType": "uint256",
          "name": "_numOfMins",
          "type": "uint256"
        }
      ],
      "name": "createTrade",
      "outputs": [],
      "stateMutability": "payable",
      "type": "function",
      "payable": true
    },
    {
      "inputs": [
        {
          "internalType": "uint256",
          "name": "_id",
          "type": "uint256"
        }
      ],
      "name": "cancelTrade",
      "outputs": [],
      "stateMutability": "nonpayable",
      "type": "function"
    },
    {
      "inputs": [
        {
          "internalType": "uint256",
          "name": "_id",
          "type": "uint256"
        },
        {
          "internalType": "uint256",
          "name": "_price",
          "type": "uint256"
        }
      ],
      "name": "bid",
      "outputs": [],
      "stateMutability": "payable",
      "type": "function",
      "payable": true
    },
    {
      "inputs": [
        {
          "internalType": "uint256",
          "name": "_id",
          "type": "uint256"
        }
      ],
      "name": "withdrawBid",
      "outputs": [],
      "stateMutability": "nonpayable",
      "type": "function"
    },
    {
      "inputs": [
        {
          "internalType": "uint256",
          "name": "_id",
          "type": "uint256"
        }
      ],
      "name": "endBidding",
      "outputs": [],
      "stateMutability": "payable",
      "type": "function",
      "payable": true
    },
    {
      "inputs": [
        {
          "internalType": "uint256",
          "name": "_id",
          "type": "uint256"
        }
      ],
      "name": "buyerConfirmSuccessfulTrade",
      "outputs": [],
      "stateMutability": "nonpayable",
      "type": "function"
    },
    {
      "inputs": [
        {
          "internalType": "uint256",
          "name": "_id",
          "type": "uint256"
        }
      ],
      "name": "buyerMarkFailedTrade",
      "outputs": [],
      "stateMutability": "nonpayable",
      "type": "function"
    },
    {
      "inputs": [
        {
          "internalType": "uint256",
          "name": "_id",
          "type": "uint256"
        }
      ],
      "name": "buyerClaimMoneyBack",
      "outputs": [],
      "stateMutability": "nonpayable",
      "type": "function"
    },
    {
      "inputs": [
        {
          "internalType": "uint256",
          "name": "_id",
          "type": "uint256"
        }
      ],
      "name": "sellerConfirmFailedTrade",
      "outputs": [],
      "stateMutability": "nonpayable",
      "type": "function"
    },
    {
      "inputs": [
        {
          "internalType": "uint256",
          "name": "_id",
          "type": "uint256"
        }
      ],
      "name": "sellerMarkConflict",
      "outputs": [],
      "stateMutability": "nonpayable",
      "type": "function"
    },
    {
      "inputs": [
        {
          "internalType": "uint256",
          "name": "_id",
          "type": "uint256"
        }
      ],
      "name": "sellerClaimMoney",
      "outputs": [],
      "stateMutability": "nonpayable",
      "type": "function"
    },
    {
      "inputs": [
        {
          "internalType": "uint256",
          "name": "_id",
          "type": "uint256"
        },
        {
          "internalType": "bool",
          "name": "_isSuccessfulTrade",
          "type": "bool"
        }
      ],
      "name": "adminResolveConflict",
      "outputs": [],
      "stateMutability": "nonpayable",
      "type": "function"
    },
    {
      "inputs": [],
      "name": "showContractBalance",
      "outputs": [
        {
          "internalType": "uint256",
          "name": "",
          "type": "uint256"
        }
      ],
      "stateMutability": "view",
      "type": "function",
      "constant": true
    },
    {
      "inputs": [],
      "name": "fetchAllOpenedTrades",
      "outputs": [
        {
          "components": [
            {
              "internalType": "uint256",
              "name": "id",
              "type": "uint256"
            },
            {
              "internalType": "address",
              "name": "buyer",
              "type": "address"
            },
            {
              "internalType": "uint256",
              "name": "amountEnergyNeeded",
              "type": "uint256"
            },
            {
              "internalType": "uint256",
              "name": "numOfMins",
              "type": "uint256"
            },
            {
              "internalType": "uint256",
              "name": "sellingPrice",
              "type": "uint256"
            },
            {
              "internalType": "address",
              "name": "seller",
              "type": "address"
            },
            {
              "internalType": "uint256",
              "name": "bidAt",
              "type": "uint256"
            },
            {
              "internalType": "uint256",
              "name": "biddingEndedAt",
              "type": "uint256"
            },
            {
              "internalType": "enum Status",
              "name": "status",
              "type": "uint8"
            }
          ],
          "internalType": "struct Trade[]",
          "name": "",
          "type": "tuple[]"
        }
      ],
      "stateMutability": "view",
      "type": "function",
      "constant": true
    }
  ],
  "bytecode": "0x608060405234801561001057600080fd5b50336000806101000a81548173ffffffffffffffffffffffffffffffffffffffff021916908373ffffffffffffffffffffffffffffffffffffffff160217905550613e7a806100606000396000f3fe6080604052600436106100e85760003560e01c80636e82386e1161008a578063b117a10611610059578063b117a1061461028d578063e40ebc3a146102b6578063f6819ecf146102df578063f851a44014610308576100e8565b80636e82386e146101f45780638cb02ef41461021d578063901c947f1461024657806396463fc614610271576100e8565b80630eaaf4c8116100c65780630eaaf4c81461015d57806321af7a81146101865780634f63f69e146101af578063598647f8146101d8576100e8565b80630160a13c146100ed578063093755ad1461011857806309ec6cc714610134575b600080fd5b3480156100f957600080fd5b50610102610333565b60405161010f9190612ecf565b60405180910390f35b610132600480360381019061012d9190612f22565b6104b6565b005b34801561014057600080fd5b5061015b60048036038101906101569190612f22565b610757565b005b34801561016957600080fd5b50610184600480360381019061017f9190612f22565b610b52565b005b34801561019257600080fd5b506101ad60048036038101906101a89190612f22565b610ecf565b005b3480156101bb57600080fd5b506101d660048036038101906101d19190612f22565b61126a565b005b6101f260048036038101906101ed9190612f4f565b6115a3565b005b34801561020057600080fd5b5061021b60048036038101906102169190612fc7565b6118ed565b005b34801561022957600080fd5b50610244600480360381019061023f9190612f22565b611d48565b005b34801561025257600080fd5b5061025b611efe565b6040516102689190613016565b60405180910390f35b61028b60048036038101906102869190612f4f565b611f06565b005b34801561029957600080fd5b506102b460048036038101906102af9190612f22565b612124565b005b3480156102c257600080fd5b506102dd60048036038101906102d89190612f22565b61243e565b005b3480156102eb57600080fd5b5061030660048036038101906103019190612f22565b6125f4565b005b34801561031457600080fd5b5061031d61292e565b60405161032a9190613040565b60405180910390f35b60606001805480602002602001604051908101604052809291908181526020016000905b828210156104ad578382906000526020600020906009020160405180610120016040529081600082015481526020016001820160009054906101000a900473ffffffffffffffffffffffffffffffffffffffff1673ffffffffffffffffffffffffffffffffffffffff1673ffffffffffffffffffffffffffffffffffffffff1681526020016002820154815260200160038201548152602001600482015481526020016005820160009054906101000a900473ffffffffffffffffffffffffffffffffffffffff1673ffffffffffffffffffffffffffffffffffffffff1673ffffffffffffffffffffffffffffffffffffffff16815260200160068201548152602001600782015481526020016008820160009054906101000a900460ff16600681111561048857610487612d1d565b5b600681111561049a57610499612d1d565b5b8152505081526020019060010190610357565b50505050905090565b60006104c182612952565b9050600180549050811061050a576040517f08c379a000000000000000000000000000000000000000000000000000000000815260040161050190613104565b60405180910390fd5b6000600182815481106105205761051f613124565b5b906000526020600020906009020190508060010160009054906101000a900473ffffffffffffffffffffffffffffffffffffffff1673ffffffffffffffffffffffffffffffffffffffff163373ffffffffffffffffffffffffffffffffffffffff16146105c2576040517f08c379a00000000000000000000000000000000000000000000000000000000081526004016105b9906131c5565b60405180910390fd5b600073ffffffffffffffffffffffffffffffffffffffff168160050160009054906101000a900473ffffffffffffffffffffffffffffffffffffffff1673ffffffffffffffffffffffffffffffffffffffff1603610655576040517f08c379a000000000000000000000000000000000000000000000000000000000815260040161064c9061327d565b60405180910390fd5b6000600681111561066957610668612d1d565b5b8160080160009054906101000a900460ff16600681111561068d5761068c612d1d565b5b146106cd576040517f08c379a00000000000000000000000000000000000000000000000000000000081526004016106c4906132e9565b60405180910390fd5b80600401543414610713576040517f08c379a000000000000000000000000000000000000000000000000000000000815260040161070a9061337b565b60405180910390fd5b34816004018190555042816007018190555060028160080160006101000a81548160ff0219169083600681111561074d5761074c612d1d565b5b0217905550505050565b600061076282612952565b905060018054905081106107ab576040517f08c379a00000000000000000000000000000000000000000000000000000000081526004016107a290613104565b60405180910390fd5b6000600182815481106107c1576107c0613124565b5b906000526020600020906009020190508060010160009054906101000a900473ffffffffffffffffffffffffffffffffffffffff1673ffffffffffffffffffffffffffffffffffffffff163373ffffffffffffffffffffffffffffffffffffffff1614610863576040517f08c379a000000000000000000000000000000000000000000000000000000000815260040161085a906131c5565b60405180910390fd5b6000600681111561087757610876612d1d565b5b8160080160009054906101000a900460ff16600681111561089b5761089a612d1d565b5b146108db576040517f08c379a00000000000000000000000000000000000000000000000000000000081526004016108d2906132e9565b60405180910390fd5b600073ffffffffffffffffffffffffffffffffffffffff168160050160009054906101000a900473ffffffffffffffffffffffffffffffffffffffff1673ffffffffffffffffffffffffffffffffffffffff1614610a1d578060050160009054906101000a900473ffffffffffffffffffffffffffffffffffffffff1673ffffffffffffffffffffffffffffffffffffffff166108fc670214e8348c4f00009081150290604051600060405180830381858888f193505050501580156109a5573d6000803e3d6000fd5b508060010160009054906101000a900473ffffffffffffffffffffffffffffffffffffffff1673ffffffffffffffffffffffffffffffffffffffff166108fc66b1a2bc2ec500009081150290604051600060405180830381858888f19350505050158015610a17573d6000803e3d6000fd5b50610a91565b8060010160009054906101000a900473ffffffffffffffffffffffffffffffffffffffff1673ffffffffffffffffffffffffffffffffffffffff166108fc67016345785d8a00009081150290604051600060405180830381858888f19350505050158015610a8f573d6000803e3d6000fd5b505b60018160080160006101000a81548160ff02191690836006811115610ab957610ab8612d1d565b5b02179055507f970f95a69657c356fb5fab65a4555c4a1571711b016e0d0f2c288114b4c5493c81604051610aed9190613548565b60405180910390a1610afe826129b0565b600180549050610b0d84612952565b14610b4d576040517f08c379a0000000000000000000000000000000000000000000000000000000008152600401610b44906135b0565b60405180910390fd5b505050565b6000610b5d82612952565b90506001805490508110610ba6576040517f08c379a0000000000000000000000000000000000000000000000000000000008152600401610b9d90613104565b60405180910390fd5b600060018281548110610bbc57610bbb613124565b5b906000526020600020906009020190508060050160009054906101000a900473ffffffffffffffffffffffffffffffffffffffff1673ffffffffffffffffffffffffffffffffffffffff163373ffffffffffffffffffffffffffffffffffffffff1614610c5e576040517f08c379a0000000000000000000000000000000000000000000000000000000008152600401610c55906131c5565b60405180910390fd5b60006006811115610c7257610c71612d1d565b5b8160080160009054906101000a900460ff166006811115610c9657610c95612d1d565b5b14610cd6576040517f08c379a0000000000000000000000000000000000000000000000000000000008152600401610ccd906132e9565b60405180910390fd5b60148160060154610ce791906135ff565b421015610d29576040517f08c379a0000000000000000000000000000000000000000000000000000000008152600401610d2090613739565b60405180910390fd5b8060050160009054906101000a900473ffffffffffffffffffffffffffffffffffffffff1673ffffffffffffffffffffffffffffffffffffffff166108fc670214e8348c4f00009081150290604051600060405180830381858888f19350505050158015610d9b573d6000803e3d6000fd5b508060010160009054906101000a900473ffffffffffffffffffffffffffffffffffffffff1673ffffffffffffffffffffffffffffffffffffffff166108fc66b1a2bc2ec500009081150290604051600060405180830381858888f19350505050158015610e0d573d6000803e3d6000fd5b5060018160080160006101000a81548160ff02191690836006811115610e3657610e35612d1d565b5b02179055507f970f95a69657c356fb5fab65a4555c4a1571711b016e0d0f2c288114b4c5493c81604051610e6a9190613548565b60405180910390a1610e7b826129b0565b600180549050610e8a84612952565b14610eca576040517f08c379a0000000000000000000000000000000000000000000000000000000008152600401610ec1906135b0565b60405180910390fd5b505050565b6000610eda82612952565b90506001805490508110610f23576040517f08c379a0000000000000000000000000000000000000000000000000000000008152600401610f1a90613104565b60405180910390fd5b600060018281548110610f3957610f38613124565b5b906000526020600020906009020190508060050160009054906101000a900473ffffffffffffffffffffffffffffffffffffffff1673ffffffffffffffffffffffffffffffffffffffff163373ffffffffffffffffffffffffffffffffffffffff1614610fdb576040517f08c379a0000000000000000000000000000000000000000000000000000000008152600401610fd2906137cb565b60405180910390fd5b60026006811115610fef57610fee612d1d565b5b8160080160009054906101000a900460ff16600681111561101357611012612d1d565b5b14611053576040517f08c379a000000000000000000000000000000000000000000000000000000000815260040161104a90613883565b60405180910390fd5b603c816003015461106491906138a3565b816007015461107391906135ff565b4210156110b5576040517f08c379a00000000000000000000000000000000000000000000000000000000081526004016110ac90613a2d565b60405180910390fd5b8060010160009054906101000a900473ffffffffffffffffffffffffffffffffffffffff1673ffffffffffffffffffffffffffffffffffffffff166108fc66b1a2bc2ec500009081150290604051600060405180830381858888f19350505050158015611126573d6000803e3d6000fd5b508060050160009054906101000a900473ffffffffffffffffffffffffffffffffffffffff1673ffffffffffffffffffffffffffffffffffffffff166108fc670214e8348c4f0000836004015461117d91906135ff565b9081150290604051600060405180830381858888f193505050501580156111a8573d6000803e3d6000fd5b5060058160080160006101000a81548160ff021916908360068111156111d1576111d0612d1d565b5b02179055507f970f95a69657c356fb5fab65a4555c4a1571711b016e0d0f2c288114b4c5493c816040516112059190613548565b60405180910390a1611216826129b0565b60018054905061122584612952565b14611265576040517f08c379a000000000000000000000000000000000000000000000000000000000815260040161125c906135b0565b60405180910390fd5b505050565b600061127582612952565b905060018054905081106112be576040517f08c379a00000000000000000000000000000000000000000000000000000000081526004016112b590613104565b60405180910390fd5b6000600182815481106112d4576112d3613124565b5b906000526020600020906009020190508060050160009054906101000a900473ffffffffffffffffffffffffffffffffffffffff1673ffffffffffffffffffffffffffffffffffffffff163373ffffffffffffffffffffffffffffffffffffffff1614611376576040517f08c379a000000000000000000000000000000000000000000000000000000000815260040161136d906137cb565b60405180910390fd5b6003600681111561138a57611389612d1d565b5b8160080160009054906101000a900460ff1660068111156113ae576113ad612d1d565b5b146113ee576040517f08c379a00000000000000000000000000000000000000000000000000000000081526004016113e590613883565b60405180910390fd5b8060050160009054906101000a900473ffffffffffffffffffffffffffffffffffffffff1673ffffffffffffffffffffffffffffffffffffffff166108fc66b1a2bc2ec500009081150290604051600060405180830381858888f1935050505015801561145f573d6000803e3d6000fd5b508060010160009054906101000a900473ffffffffffffffffffffffffffffffffffffffff1673ffffffffffffffffffffffffffffffffffffffff166108fc670214e8348c4f000083600401546114b691906135ff565b9081150290604051600060405180830381858888f193505050501580156114e1573d6000803e3d6000fd5b5060068160080160006101000a81548160ff0219169083600681111561150a57611509612d1d565b5b02179055507f970f95a69657c356fb5fab65a4555c4a1571711b016e0d0f2c288114b4c5493c8160405161153e9190613548565b60405180910390a161154f826129b0565b60018054905061155e84612952565b1461159e576040517f08c379a0000000000000000000000000000000000000000000000000000000008152600401611595906135b0565b60405180910390fd5b505050565b60006115ae83612952565b905060018054905081106115f7576040517f08c379a00000000000000000000000000000000000000000000000000000000081526004016115ee90613104565b60405180910390fd5b60006001828154811061160d5761160c613124565b5b906000526020600020906009020190508060010160009054906101000a900473ffffffffffffffffffffffffffffffffffffffff1673ffffffffffffffffffffffffffffffffffffffff163373ffffffffffffffffffffffffffffffffffffffff16036116af576040517f08c379a00000000000000000000000000000000000000000000000000000000081526004016116a690613abf565b60405180910390fd5b600060068111156116c3576116c2612d1d565b5b8160080160009054906101000a900460ff1660068111156116e7576116e6612d1d565b5b14611727576040517f08c379a000000000000000000000000000000000000000000000000000000000815260040161171e906132e9565b60405180910390fd5b60008160040154148061173d5750828160040154115b61177c576040517f08c379a000000000000000000000000000000000000000000000000000000000815260040161177390613b51565b60405180910390fd5b67016345785d8a000034146117c6576040517f08c379a00000000000000000000000000000000000000000000000000000000081526004016117bd90613be3565b60405180910390fd5b600073ffffffffffffffffffffffffffffffffffffffff168160050160009054906101000a900473ffffffffffffffffffffffffffffffffffffffff1673ffffffffffffffffffffffffffffffffffffffff1614611892578060050160009054906101000a900473ffffffffffffffffffffffffffffffffffffffff1673ffffffffffffffffffffffffffffffffffffffff166108fc67016345785d8a00009081150290604051600060405180830381858888f19350505050158015611890573d6000803e3d6000fd5b505b828160040181905550338160050160006101000a81548173ffffffffffffffffffffffffffffffffffffffff021916908373ffffffffffffffffffffffffffffffffffffffff16021790555042816006018190555050505050565b60008054906101000a900473ffffffffffffffffffffffffffffffffffffffff1673ffffffffffffffffffffffffffffffffffffffff163373ffffffffffffffffffffffffffffffffffffffff161461197b576040517f08c379a000000000000000000000000000000000000000000000000000000000815260040161197290613c75565b60405180910390fd5b600061198683612952565b905060018054905081106119cf576040517f08c379a00000000000000000000000000000000000000000000000000000000081526004016119c690613104565b60405180910390fd5b6000600182815481106119e5576119e4613124565b5b9060005260206000209060090201905060046006811115611a0957611a08612d1d565b5b8160080160009054906101000a900460ff166006811115611a2d57611a2c612d1d565b5b14611a6d576040517f08c379a0000000000000000000000000000000000000000000000000000000008152600401611a6490613883565b60405180910390fd5b8215611b955760008054906101000a900473ffffffffffffffffffffffffffffffffffffffff1673ffffffffffffffffffffffffffffffffffffffff166108fc66b1a2bc2ec500009081150290604051600060405180830381858888f19350505050158015611ae0573d6000803e3d6000fd5b508060050160009054906101000a900473ffffffffffffffffffffffffffffffffffffffff1673ffffffffffffffffffffffffffffffffffffffff166108fc670214e8348c4f00008360040154611b3791906135ff565b9081150290604051600060405180830381858888f19350505050158015611b62573d6000803e3d6000fd5b5060058160080160006101000a81548160ff02191690836006811115611b8b57611b8a612d1d565b5b0217905550611cb3565b60008054906101000a900473ffffffffffffffffffffffffffffffffffffffff1673ffffffffffffffffffffffffffffffffffffffff166108fc66b1a2bc2ec500009081150290604051600060405180830381858888f19350505050158015611c02573d6000803e3d6000fd5b508060010160009054906101000a900473ffffffffffffffffffffffffffffffffffffffff1673ffffffffffffffffffffffffffffffffffffffff166108fc670214e8348c4f00008360040154611c5991906135ff565b9081150290604051600060405180830381858888f19350505050158015611c84573d6000803e3d6000fd5b5060068160080160006101000a81548160ff02191690836006811115611cad57611cac612d1d565b5b02179055505b7f970f95a69657c356fb5fab65a4555c4a1571711b016e0d0f2c288114b4c5493c81604051611ce29190613548565b60405180910390a1611cf3826129b0565b600180549050611d0285612952565b14611d42576040517f08c379a0000000000000000000000000000000000000000000000000000000008152600401611d39906135b0565b60405180910390fd5b50505050565b6000611d5382612952565b90506001805490508110611d9c576040517f08c379a0000000000000000000000000000000000000000000000000000000008152600401611d9390613104565b60405180910390fd5b600060018281548110611db257611db1613124565b5b906000526020600020906009020190508060010160009054906101000a900473ffffffffffffffffffffffffffffffffffffffff1673ffffffffffffffffffffffffffffffffffffffff163373ffffffffffffffffffffffffffffffffffffffff1614611e54576040517f08c379a0000000000000000000000000000000000000000000000000000000008152600401611e4b906137cb565b60405180910390fd5b60026006811115611e6857611e67612d1d565b5b8160080160009054906101000a900460ff166006811115611e8c57611e8b612d1d565b5b14611ecc576040517f08c379a0000000000000000000000000000000000000000000000000000000008152600401611ec390613883565b60405180910390fd5b60038160080160006101000a81548160ff02191690836006811115611ef457611ef3612d1d565b5b0217905550505050565b600047905090565b67016345785d8a00003414611f50576040517f08c379a0000000000000000000000000000000000000000000000000000000008152600401611f4790613be3565b60405180910390fd5b611f58612c0d565b60026000815480929190611f6b90613c95565b9190505581600001818152505033816020019073ffffffffffffffffffffffffffffffffffffffff16908173ffffffffffffffffffffffffffffffffffffffff1681525050828160400181815250508181606001818152505060008161010001906006811115611fde57611fdd612d1d565b5b90816006811115611ff257611ff1612d1d565b5b8152505060018190806001815401808255809150506001900390600052602060002090600902016000909190919091506000820151816000015560208201518160010160006101000a81548173ffffffffffffffffffffffffffffffffffffffff021916908373ffffffffffffffffffffffffffffffffffffffff16021790555060408201518160020155606082015181600301556080820151816004015560a08201518160050160006101000a81548173ffffffffffffffffffffffffffffffffffffffff021916908373ffffffffffffffffffffffffffffffffffffffff16021790555060c0820151816006015560e082015181600701556101008201518160080160006101000a81548160ff0219169083600681111561211857612117612d1d565b5b02179055505050505050565b600061212f82612952565b90506001805490508110612178576040517f08c379a000000000000000000000000000000000000000000000000000000000815260040161216f90613104565b60405180910390fd5b60006001828154811061218e5761218d613124565b5b906000526020600020906009020190508060010160009054906101000a900473ffffffffffffffffffffffffffffffffffffffff1673ffffffffffffffffffffffffffffffffffffffff163373ffffffffffffffffffffffffffffffffffffffff1614612230576040517f08c379a0000000000000000000000000000000000000000000000000000000008152600401612227906137cb565b60405180910390fd5b6003600681111561224457612243612d1d565b5b8160080160009054906101000a900460ff16600681111561226857612267612d1d565b5b146122a8576040517f08c379a000000000000000000000000000000000000000000000000000000000815260040161229f90613883565b60405180910390fd5b60b481600701546122b991906135ff565b4210156122fb576040517f08c379a00000000000000000000000000000000000000000000000000000000081526004016122f290613dc1565b60405180910390fd5b8060010160009054906101000a900473ffffffffffffffffffffffffffffffffffffffff1673ffffffffffffffffffffffffffffffffffffffff166108fc6702c68af0bb140000836004015461235191906135ff565b9081150290604051600060405180830381858888f1935050505015801561237c573d6000803e3d6000fd5b5060068160080160006101000a81548160ff021916908360068111156123a5576123a4612d1d565b5b02179055507f970f95a69657c356fb5fab65a4555c4a1571711b016e0d0f2c288114b4c5493c816040516123d99190613548565b60405180910390a16123ea826129b0565b6001805490506123f984612952565b14612439576040517f08c379a0000000000000000000000000000000000000000000000000000000008152600401612430906135b0565b60405180910390fd5b505050565b600061244982612952565b90506001805490508110612492576040517f08c379a000000000000000000000000000000000000000000000000000000000815260040161248990613104565b60405180910390fd5b6000600182815481106124a8576124a7613124565b5b906000526020600020906009020190508060050160009054906101000a900473ffffffffffffffffffffffffffffffffffffffff1673ffffffffffffffffffffffffffffffffffffffff163373ffffffffffffffffffffffffffffffffffffffff161461254a576040517f08c379a0000000000000000000000000000000000000000000000000000000008152600401612541906137cb565b60405180910390fd5b6003600681111561255e5761255d612d1d565b5b8160080160009054906101000a900460ff16600681111561258257612581612d1d565b5b146125c2576040517f08c379a00000000000000000000000000000000000000000000000000000000081526004016125b990613883565b60405180910390fd5b60048160080160006101000a81548160ff021916908360068111156125ea576125e9612d1d565b5b0217905550505050565b60006125ff82612952565b90506001805490508110612648576040517f08c379a000000000000000000000000000000000000000000000000000000000815260040161263f90613104565b60405180910390fd5b60006001828154811061265e5761265d613124565b5b906000526020600020906009020190508060010160009054906101000a900473ffffffffffffffffffffffffffffffffffffffff1673ffffffffffffffffffffffffffffffffffffffff163373ffffffffffffffffffffffffffffffffffffffff1614612700576040517f08c379a00000000000000000000000000000000000000000000000000000000081526004016126f7906137cb565b60405180910390fd5b6002600681111561271457612713612d1d565b5b8160080160009054906101000a900460ff16600681111561273857612737612d1d565b5b14612778576040517f08c379a000000000000000000000000000000000000000000000000000000000815260040161276f90613883565b60405180910390fd5b8060050160009054906101000a900473ffffffffffffffffffffffffffffffffffffffff1673ffffffffffffffffffffffffffffffffffffffff166108fc67016345785d8a000083600401546127ce91906135ff565b9081150290604051600060405180830381858888f193505050501580156127f9573d6000803e3d6000fd5b508060010160009054906101000a900473ffffffffffffffffffffffffffffffffffffffff1673ffffffffffffffffffffffffffffffffffffffff166108fc67016345785d8a00009081150290604051600060405180830381858888f1935050505015801561286c573d6000803e3d6000fd5b5060058160080160006101000a81548160ff0219169083600681111561289557612894612d1d565b5b02179055507f970f95a69657c356fb5fab65a4555c4a1571711b016e0d0f2c288114b4c5493c816040516128c99190613548565b60405180910390a16128da826129b0565b6001805490506128e984612952565b14612929576040517f08c379a0000000000000000000000000000000000000000000000000000000008152600401612920906135b0565b60405180910390fd5b505050565b60008054906101000a900473ffffffffffffffffffffffffffffffffffffffff1681565b600080600090505b6001805490508110156129a757826001828154811061297c5761297b613124565b5b90600052602060002090600902016000015403156129a757808061299f90613c95565b91505061295a565b80915050919050565b60018080805490506129c29190613de1565b815481106129d3576129d2613124565b5b9060005260206000209060090201600182815481106129f5576129f4613124565b5b9060005260206000209060090201600082015481600001556001820160009054906101000a900473ffffffffffffffffffffffffffffffffffffffff168160010160006101000a81548173ffffffffffffffffffffffffffffffffffffffff021916908373ffffffffffffffffffffffffffffffffffffffff1602179055506002820154816002015560038201548160030155600482015481600401556005820160009054906101000a900473ffffffffffffffffffffffffffffffffffffffff168160050160006101000a81548173ffffffffffffffffffffffffffffffffffffffff021916908373ffffffffffffffffffffffffffffffffffffffff16021790555060068201548160060155600782015481600701556008820160009054906101000a900460ff168160080160006101000a81548160ff02191690836006811115612b4557612b44612d1d565b5b02179055509050506001805480612b5f57612b5e613e15565b5b60019003818190600052602060002090600902016000808201600090556001820160006101000a81549073ffffffffffffffffffffffffffffffffffffffff02191690556002820160009055600382016000905560048201600090556005820160006101000a81549073ffffffffffffffffffffffffffffffffffffffff0219169055600682016000905560078201600090556008820160006101000a81549060ff02191690555050905550565b60405180610120016040528060008152602001600073ffffffffffffffffffffffffffffffffffffffff168152602001600081526020016000815260200160008152602001600073ffffffffffffffffffffffffffffffffffffffff168152602001600081526020016000815260200160006006811115612c9157612c90612d1d565b5b81525090565b600081519050919050565b600082825260208201905092915050565b6000819050602082019050919050565b6000819050919050565b612cd681612cc3565b82525050565b600073ffffffffffffffffffffffffffffffffffffffff82169050919050565b6000612d0782612cdc565b9050919050565b612d1781612cfc565b82525050565b7f4e487b7100000000000000000000000000000000000000000000000000000000600052602160045260246000fd5b60078110612d5d57612d5c612d1d565b5b50565b6000819050612d6e82612d4c565b919050565b6000612d7e82612d60565b9050919050565b612d8e81612d73565b82525050565b61012082016000820151612dab6000850182612ccd565b506020820151612dbe6020850182612d0e565b506040820151612dd16040850182612ccd565b506060820151612de46060850182612ccd565b506080820151612df76080850182612ccd565b5060a0820151612e0a60a0850182612d0e565b5060c0820151612e1d60c0850182612ccd565b5060e0820151612e3060e0850182612ccd565b50610100820151612e45610100850182612d85565b50505050565b6000612e578383612d94565b6101208301905092915050565b6000602082019050919050565b6000612e7c82612c97565b612e868185612ca2565b9350612e9183612cb3565b8060005b83811015612ec2578151612ea98882612e4b565b9750612eb483612e64565b925050600181019050612e95565b5085935050505092915050565b60006020820190508181036000830152612ee98184612e71565b905092915050565b600080fd5b612eff81612cc3565b8114612f0a57600080fd5b50565b600081359050612f1c81612ef6565b92915050565b600060208284031215612f3857612f37612ef1565b5b6000612f4684828501612f0d565b91505092915050565b60008060408385031215612f6657612f65612ef1565b5b6000612f7485828601612f0d565b9250506020612f8585828601612f0d565b9150509250929050565b60008115159050919050565b612fa481612f8f565b8114612faf57600080fd5b50565b600081359050612fc181612f9b565b92915050565b60008060408385031215612fde57612fdd612ef1565b5b6000612fec85828601612f0d565b9250506020612ffd85828601612fb2565b9150509250929050565b61301081612cc3565b82525050565b600060208201905061302b6000830184613007565b92915050565b61303a81612cfc565b82525050565b60006020820190506130556000830184613031565b92915050565b600082825260208201905092915050565b7f5472616465204e6f7420466f756e6420284d6f73742070726f6261626c79206960008201527f742773206e6f206c6f6e676572206f70656e65642c20636865636b20636c6f7360208201527f6564207472616465732129000000000000000000000000000000000000000000604082015250565b60006130ee604b8361305b565b91506130f98261306c565b606082019050919050565b6000602082019050818103600083015261311d816130e1565b9050919050565b7f4e487b7100000000000000000000000000000000000000000000000000000000600052603260045260246000fd5b7f596f75206172656e277420616c6c6f77656420746f20706572666f726d20746860008201527f697320616374696f6e0000000000000000000000000000000000000000000000602082015250565b60006131af60298361305b565b91506131ba82613153565b604082019050919050565b600060208201905081810360008301526131de816131a2565b9050919050565b7f596f752063616e6e6f7420656e642062696464696e6720696620796f7520686160008201527f76656e277420726563656976656420616e79206269642e20557365202243616e60208201527f63656c2220696e73746561640000000000000000000000000000000000000000604082015250565b6000613267604c8361305b565b9150613272826131e5565b606082019050919050565b600060208201905081810360008301526132968161325a565b9050919050565b7f5468652062696464696e672068617320616c726561647920656e646564000000600082015250565b60006132d3601d8361305b565b91506132de8261329d565b602082019050919050565b60006020820190508181036000830152613302816132c6565b9050919050565b7f596f75206d757374207472616e7366657220746865206d6f6e657920696e206160008201527f6476616e63650000000000000000000000000000000000000000000000000000602082015250565b600061336560268361305b565b915061337082613309565b604082019050919050565b6000602082019050818103600083015261339481613358565b9050919050565b60008160001c9050919050565b6000819050919050565b60006133c56133c08361339b565b6133a8565b9050919050565b600073ffffffffffffffffffffffffffffffffffffffff82169050919050565b60006133ff6133fa8361339b565b6133cc565b9050919050565b600060ff82169050919050565b60006134266134218361339b565b613406565b9050919050565b61012082016000808301549050613443816133b2565b6134506000860182612ccd565b5060018301549050613461816133ec565b61346e6020860182612d0e565b506002830154905061347f816133b2565b61348c6040860182612ccd565b506003830154905061349d816133b2565b6134aa6060860182612ccd565b50600483015490506134bb816133b2565b6134c86080860182612ccd565b50600583015490506134d9816133ec565b6134e660a0860182612d0e565b50600683015490506134f7816133b2565b61350460c0860182612ccd565b5060078301549050613515816133b2565b61352260e0860182612ccd565b506008830154905061353381613413565b613541610100860182612d85565b5050505050565b60006101208201905061355e600083018461342d565b92915050565b7f4552524f523a205472616e736174696f6e2072657665727465642e0000000000600082015250565b600061359a601b8361305b565b91506135a582613564565b602082019050919050565b600060208201905081810360008301526135c98161358d565b9050919050565b7f4e487b7100000000000000000000000000000000000000000000000000000000600052601160045260246000fd5b600061360a82612cc3565b915061361583612cc3565b9250827fffffffffffffffffffffffffffffffffffffffffffffffffffffffffffffffff0382111561364a576136496135d0565b5b828201905092915050565b7f596f752063616e20776974686472617720796f757220626964204f4e4c59206960008201527f66207468652063726561746f72206f66207468697320747261646520646f657360208201527f6e277420656e642062696464696e672077697468696e2031206d696e7574652060408201527f66726f6d207468652074696d6520796f75207375636365737366756c6c79207060608201527f6c6163656420796f757220626964000000000000000000000000000000000000608082015250565b6000613723608e8361305b565b915061372e82613655565b60a082019050919050565b6000602082019050818103600083015261375281613716565b9050919050565b7f596f75277265206e6f7420616c6c6f77656420746f20706572666f726d20746860008201527f697320616374696f6e2100000000000000000000000000000000000000000000602082015250565b60006137b5602a8361305b565b91506137c082613759565b604082019050919050565b600060208201905081810360008301526137e4816137a8565b9050919050565b7f5468652063757272656e7420737461747573206f66207468652074726164652060008201527f646f65736e2774207065726d697420796f7520746f20706572666f726d20746860208201527f697320616374696f6e0000000000000000000000000000000000000000000000604082015250565b600061386d60498361305b565b9150613878826137eb565b606082019050919050565b6000602082019050818103600083015261389c81613860565b9050919050565b60006138ae82612cc3565b91506138b983612cc3565b9250817fffffffffffffffffffffffffffffffffffffffffffffffffffffffffffffffff04831182151516156138f2576138f16135d0565b5b828202905092915050565b7f596f752063616e20636c61696d20796f7572206d6f6e6579206261636b206f6e60008201527f6c792069662074686520627579657220646f65736e277420636f6e6669726d2060208201527f73756363657373206e6f72206d61726b2074686520747261646520617320612060408201527f6661696c6564206f6e652077697468696e20746865206e756d626572206f662060608201527f6d696e757465732073706563696669656420696e20746865207472616465207360808201527f74617274696e672066726f6d207468652074696d6520686520656e646564207460a08201527f68652062696464696e670000000000000000000000000000000000000000000060c082015250565b6000613a1760ca8361305b565b9150613a22826138fd565b60e082019050919050565b60006020820190508181036000830152613a4681613a0a565b9050919050565b7f596f752063616e277420626964206f6e206120747261646520796f752068617660008201527f6520637265617465642121000000000000000000000000000000000000000000602082015250565b6000613aa9602b8361305b565b9150613ab482613a4d565b604082019050919050565b60006020820190508181036000830152613ad881613a9c565b9050919050565b7f546865726520697320616c72656164792061206c6f776572206f72206571756160008201527f6c20626964210000000000000000000000000000000000000000000000000000602082015250565b6000613b3b60268361305b565b9150613b4682613adf565b604082019050919050565b60006020820190508181036000830152613b6a81613b2e565b9050919050565b7f596f75206d7573742073656e6420612076616c7565206f6620302e312045544860008201527f206173206465706f736974210000000000000000000000000000000000000000602082015250565b6000613bcd602c8361305b565b9150613bd882613b71565b604082019050919050565b60006020820190508181036000830152613bfc81613bc0565b9050919050565b7f4f6e6c792061646d696e20697320616c6c6f77656420746f20706572666f726d60008201527f207468697320616374696f6e2100000000000000000000000000000000000000602082015250565b6000613c5f602d8361305b565b9150613c6a82613c03565b604082019050919050565b60006020820190508181036000830152613c8e81613c52565b9050919050565b6000613ca082612cc3565b91507fffffffffffffffffffffffffffffffffffffffffffffffffffffffffffffffff8203613cd257613cd16135d0565b5b600182019050919050565b7f596f752063616e20636c61696d20796f7572206d6f6e6579206261636b206f6e60008201527f6c79206966207468652073656c6c657220646f65736e277420636f6e6669726d60208201527f206661696c757265206e6f7220726571756573742061646d696e277320696e7460408201527f657276656e74696f6e2077697468696e2033206d696e757465732066726f6d2060608201527f7468652074696d6520686520776f6e207468652062696464696e670000000000608082015250565b6000613dab609b8361305b565b9150613db682613cdd565b60a082019050919050565b60006020820190508181036000830152613dda81613d9e565b9050919050565b6000613dec82612cc3565b9150613df783612cc3565b925082821015613e0a57613e096135d0565b5b828203905092915050565b7f4e487b7100000000000000000000000000000000000000000000000000000000600052603160045260246000fdfea26469706673582212207fa1adb0045a570cbab9c3cd3d7cf7ff9ffab7aa082b4bbe511376250af63e2d64736f6c634300080e0033",
  "immutableReferences": {},
  "source": "// SPDX-License-Identifier: MIT\npragma solidity >=0.7.0 <0.9.0;\n\nenum Status { RUNNING, CANCELED, PENDING_BUYER_CONFIRMATION, PENDING_SELLER_CONFIRMATION, CONFLICT, SUCCESSFUL, FAILED }\n\nstruct Trade {\n    uint id; \n    address buyer;\n    uint amountEnergyNeeded;\n    uint numOfMins; // uint numOfHours;\n    uint sellingPrice;\n    address seller;\n    uint bidAt;\n    uint biddingEndedAt;\n    Status status;\n}\n\ncontract EnergyTrading {\n    address public admin;\n    constructor() { admin = msg.sender; }\n\n    modifier onlyAdmin() {\n        require(msg.sender == admin, \"Only admin is allowed to perform this action!\");\n        _;\n    }\n\n    Trade[] internal openedTrades;\n    uint internal currentNumOfAllTrades;\n\n    event TradeClosed(Trade trade);\n\n    function createTrade(uint _amountEnergyNeeded, uint _numOfMins) external payable { // _numOfHours\n        require(msg.value == 100000000000000000, \"You must send a value of 0.1 ETH as deposit!\");\n        Trade memory newTrade;\n        newTrade.id = currentNumOfAllTrades++;\n        newTrade.buyer = msg.sender;\n        newTrade.amountEnergyNeeded = _amountEnergyNeeded;\n        newTrade.numOfMins = _numOfMins; // newTrade.numOfHours = _numOfHours;\n        newTrade.status = Status.RUNNING;\n        openedTrades.push(newTrade);\n    }\n\n    function cancelTrade(uint _id) external {\n        uint tradeIndex = findTrade(_id);\n        require(tradeIndex < openedTrades.length, \"Trade Not Found (Most probably it's no longer opened, check closed trades!)\");\n        Trade storage targetedTrade = openedTrades[tradeIndex];\n        require(msg.sender == targetedTrade.buyer, \"You aren't allowed to perform this action\");\n        require(targetedTrade.status == Status.RUNNING, \"The bidding has already ended\");\n\n        if (targetedTrade.seller != address(0)) {\n            payable(targetedTrade.seller).transfer(150000000000000000); // 0.15 ETH\n            payable(targetedTrade.buyer).transfer(50000000000000000); // 0.05 ETH\n        } else {\n            payable(targetedTrade.buyer).transfer(100000000000000000); // 0.1 ETH\n        }\n        targetedTrade.status = Status.CANCELED;\n        emit TradeClosed({trade: targetedTrade});\n        removeFromOpenedTrades(tradeIndex);\n\n        require(findTrade(_id) == openedTrades.length, \"ERROR: Transation reverted.\");\n    }\n\n    function bid(uint _id, uint _price) external payable {\n        uint tradeIndex = findTrade(_id);\n        require(tradeIndex < openedTrades.length, \"Trade Not Found (Most probably it's no longer opened, check closed trades!)\");\n        Trade storage targetedTrade = openedTrades[tradeIndex];\n        require(msg.sender != targetedTrade.buyer, \"You can't bid on a trade you have created!!\");\n        require(targetedTrade.status == Status.RUNNING, \"The bidding has already ended\");\n        require(targetedTrade.sellingPrice == 0 || targetedTrade.sellingPrice > _price, \"There is already a lower or equal bid!\");\n        require(msg.value == 100000000000000000, \"You must send a value of 0.1 ETH as deposit!\");\n\n        if (targetedTrade.seller != address(0)) {\n            payable(targetedTrade.seller).transfer(100000000000000000); // 0.1 ETH (deposit)\n        }\n        targetedTrade.sellingPrice = _price;\n        targetedTrade.seller = msg.sender;\n        targetedTrade.bidAt = block.timestamp;\n    }\n\n    function withdrawBid(uint _id) external {\n        uint tradeIndex = findTrade(_id);\n        require(tradeIndex < openedTrades.length, \"Trade Not Found (Most probably it's no longer opened, check closed trades!)\");\n        Trade storage targetedTrade = openedTrades[tradeIndex];\n        require(msg.sender == targetedTrade.seller, \"You aren't allowed to perform this action\");\n        require(targetedTrade.status == Status.RUNNING, \"The bidding has already ended\");\n        require(block.timestamp >= targetedTrade.bidAt + 20, \"You can withdraw your bid ONLY if the creator of this trade doesn't end bidding within 1 minute from the time you successfully placed your bid\");\n\n        payable(targetedTrade.seller).transfer(150000000000000000); // 0.15 ETH\n        payable(targetedTrade.buyer).transfer(50000000000000000); // 0.05 ETH\n        targetedTrade.status = Status.CANCELED;\n        emit TradeClosed({trade: targetedTrade});\n        removeFromOpenedTrades(tradeIndex);\n\n        require(findTrade(_id) == openedTrades.length, \"ERROR: Transation reverted.\");\n    }\n\n    function endBidding(uint _id) external payable {\n        uint tradeIndex = findTrade(_id);\n        require(tradeIndex < openedTrades.length, \"Trade Not Found (Most probably it's no longer opened, check closed trades!)\");\n        Trade storage targetedTrade = openedTrades[tradeIndex];\n        require(msg.sender == targetedTrade.buyer, \"You aren't allowed to perform this action\");\n        require(targetedTrade.seller != address(0), \"You cannot end bidding if you haven't received any bid. Use \\\"Cancel\\\" instead\");\n        require(targetedTrade.status == Status.RUNNING, \"The bidding has already ended\");\n        require(msg.value == targetedTrade.sellingPrice, \"You must transfer the money in advance\");\n\n        targetedTrade.sellingPrice = msg.value;\n        targetedTrade.biddingEndedAt = block.timestamp;\n        targetedTrade.status = Status.PENDING_BUYER_CONFIRMATION;        \n        /** We may emit an event here, if we want to notify an IoT component that is listening to this kind of event to act accordingly (Start tranfering energy!) */\n    }\n\n    function buyerConfirmSuccessfulTrade(uint _id) external {\n        uint tradeIndex = findTrade(_id);\n        require(tradeIndex < openedTrades.length, \"Trade Not Found (Most probably it's no longer opened, check closed trades!)\");\n        Trade storage targetedTrade = openedTrades[tradeIndex];\n        require(msg.sender == targetedTrade.buyer, \"You're not allowed to perform this action!\");\n        require(targetedTrade.status == Status.PENDING_BUYER_CONFIRMATION, \"The current status of the trade doesn't permit you to perform this action\");\n\n        payable(targetedTrade.seller).transfer(targetedTrade.sellingPrice + 100000000000000000); // selling price + 0.1 ETH (deposit)\n        payable(targetedTrade.buyer).transfer(100000000000000000); // 0.1 ETH (deposit)\n        targetedTrade.status = Status.SUCCESSFUL;\n        emit TradeClosed({trade: targetedTrade});\n        removeFromOpenedTrades(tradeIndex);\n\n        require(findTrade(_id) == openedTrades.length, \"ERROR: Transation reverted.\");        \n    }\n\n    function buyerMarkFailedTrade(uint _id) external {\n        uint tradeIndex = findTrade(_id);\n        require(tradeIndex < openedTrades.length, \"Trade Not Found (Most probably it's no longer opened, check closed trades!)\");\n        Trade storage targetedTrade = openedTrades[tradeIndex];\n        require(msg.sender == targetedTrade.buyer, \"You're not allowed to perform this action!\");\n        require(targetedTrade.status == Status.PENDING_BUYER_CONFIRMATION, \"The current status of the trade doesn't permit you to perform this action\");\n\n        targetedTrade.status = Status.PENDING_SELLER_CONFIRMATION;\n    }\n\n    function buyerClaimMoneyBack(uint _id) external {\n        uint tradeIndex = findTrade(_id);\n        require(tradeIndex < openedTrades.length, \"Trade Not Found (Most probably it's no longer opened, check closed trades!)\");\n        Trade storage targetedTrade = openedTrades[tradeIndex];\n        require(msg.sender == targetedTrade.buyer, \"You're not allowed to perform this action!\");\n        require(targetedTrade.status == Status.PENDING_SELLER_CONFIRMATION, \"The current status of the trade doesn't permit you to perform this action\");\n        // require(block.timestamp >= targetedTrade.timeBiddingEnded + 72 * 60 * 60, \"You can claim your money back only if the seller doesn't confirm failure nor request admin's intervention within 3 days from the time he won the bidding\");\n        require(block.timestamp >= targetedTrade.biddingEndedAt + 3 * 60, \"You can claim your money back only if the seller doesn't confirm failure nor request admin's intervention within 3 minutes from the time he won the bidding\");\n\n        payable(targetedTrade.buyer).transfer(targetedTrade.sellingPrice + 200000000000000000); // 0.2 ETH (deposit of both buyer + seller)\n        targetedTrade.status = Status.FAILED;\n        emit TradeClosed({trade: targetedTrade});\n        removeFromOpenedTrades(tradeIndex);\n\n        require(findTrade(_id) == openedTrades.length, \"ERROR: Transation reverted.\");           \n    }\n\n    function sellerConfirmFailedTrade(uint _id) external {\n        uint tradeIndex = findTrade(_id);\n        require(tradeIndex < openedTrades.length, \"Trade Not Found (Most probably it's no longer opened, check closed trades!)\");\n        Trade storage targetedTrade = openedTrades[tradeIndex];\n        require(msg.sender == targetedTrade.seller, \"You're not allowed to perform this action!\");\n        require(targetedTrade.status == Status.PENDING_SELLER_CONFIRMATION, \"The current status of the trade doesn't permit you to perform this action\");\n\n        payable(targetedTrade.seller).transfer(50000000000000000); // 0.05 ETH (50% of seller deposit)\n        payable(targetedTrade.buyer).transfer(targetedTrade.sellingPrice + 150000000000000000); // refund + 0.15 ETH (buyer deposit + 50% of seller deposit)\n        targetedTrade.status = Status.FAILED;\n        emit TradeClosed({trade: targetedTrade});\n        removeFromOpenedTrades(tradeIndex);\n\n        require(findTrade(_id) == openedTrades.length, \"ERROR: Transation reverted.\"); \n    }\n\n    function sellerMarkConflict(uint _id) external {\n        uint tradeIndex = findTrade(_id);\n        require(tradeIndex < openedTrades.length, \"Trade Not Found (Most probably it's no longer opened, check closed trades!)\");\n        Trade storage targetedTrade = openedTrades[tradeIndex];\n        require(msg.sender == targetedTrade.seller, \"You're not allowed to perform this action!\");\n        require(targetedTrade.status == Status.PENDING_SELLER_CONFIRMATION, \"The current status of the trade doesn't permit you to perform this action\");\n\n        targetedTrade.status = Status.CONFLICT;\n    }\n\n    function sellerClaimMoney(uint _id) external {\n        uint tradeIndex = findTrade(_id);\n        require(tradeIndex < openedTrades.length, \"Trade Not Found (Most probably it's no longer opened, check closed trades!)\");\n        \n        Trade storage targetedTrade = openedTrades[tradeIndex];\n        require(msg.sender == targetedTrade.seller, \"You're not allowed to perform this action!\");\n        require(targetedTrade.status == Status.PENDING_BUYER_CONFIRMATION, \"The current status of the trade doesn't permit you to perform this action\");\n        // require(block.timestamp >= targetedTrade.timeBiddingEnded + targetedTrade.numOfHours * 60 * 60, \"You can claim your money back only if the buyer doesn't confirm success nor mark the trade as a failed one within the number of hours specified in the trade starting from the time he ended the bidding\");\n        require(block.timestamp >= targetedTrade.biddingEndedAt + targetedTrade.numOfMins * 60, \"You can claim your money back only if the buyer doesn't confirm success nor mark the trade as a failed one within the number of minutes specified in the trade starting from the time he ended the bidding\");\n\n        payable(targetedTrade.buyer).transfer(50000000000000000); // 0.05 ETH (50% of buyer deposit)\n        payable(targetedTrade.seller).transfer(targetedTrade.sellingPrice + 150000000000000000); // selling price + 0.15 ETH (seller deposit + 50% of buyer deposit)\n        targetedTrade.status = Status.SUCCESSFUL;\n        emit TradeClosed({trade: targetedTrade});\n        removeFromOpenedTrades(tradeIndex);\n\n        require(findTrade(_id) == openedTrades.length, \"ERROR: Transation reverted.\"); \n    }\n\n    function adminResolveConflict(uint _id, bool _isSuccessfulTrade) onlyAdmin external {\n        uint tradeIndex = findTrade(_id);\n        require(tradeIndex < openedTrades.length, \"Trade Not Found (Most probably it's no longer opened, check closed trades!)\");\n        Trade storage targetedTrade = openedTrades[tradeIndex];\n        require(targetedTrade.status == Status.CONFLICT, \"The current status of the trade doesn't permit you to perform this action\");\n        \n        if (_isSuccessfulTrade) {\n            payable(admin).transfer(50000000000000000); // 0.05 ETH (50% of buyer deposit)\n            payable(targetedTrade.seller).transfer(targetedTrade.sellingPrice + 150000000000000000); // selling price + 0.15 ETH (seller deposit + 50% of buyer deposit)\n            targetedTrade.status = Status.SUCCESSFUL;\n        } else {\n            payable(admin).transfer(50000000000000000); // 0.05 ETH (50% of seller deposit)\n            payable(targetedTrade.buyer).transfer(targetedTrade.sellingPrice + 150000000000000000); // refund + 0.15 ETH (buyer deposit + 50% of seller deposit)\n            targetedTrade.status = Status.FAILED;\n        }\n        emit TradeClosed({trade: targetedTrade});\n        removeFromOpenedTrades(tradeIndex);\n\n        require(findTrade(_id) == openedTrades.length, \"ERROR: Transation reverted.\");\n    }\n\n    function findTrade(uint _id) internal view returns(uint) {\n        uint i = 0;\n        for (; i < openedTrades.length; i++) {\n            if (openedTrades[i].id == _id) {\n                break;\n            }      \n        }\n        return i;\n    }\n\n    function removeFromOpenedTrades(uint _index) internal {\n        openedTrades[_index] = openedTrades[openedTrades.length - 1];\n        openedTrades.pop();\n    }\n\n    /* Show contract state */\n\n    function showContractBalance() external view returns(uint) { return address(this).balance; }\n\n    function fetchAllOpenedTrades() external view returns(Trade[] memory) { return openedTrades; }\n}\n",
  "sourcePath": "/home/hany/Ethereum-Projects/fyp-energy-trading/contracts/EnergyTrading.sol",
  "compiler": {
    "name": "solc",
    "version": "0.8.14+commit.80d49f37.Emscripten.clang"
  },
  "schemaVersion": "3.4.5",
  "updatedAt": "2022-06-03T11:51:42.738Z",
  "networkType": "ethereum",
  "devdoc": {
    "kind": "dev",
    "methods": {},
    "version": 1
  },
  "userdoc": {
    "kind": "user",
    "methods": {},
    "version": 1
  }
}