{
  "contractName": "EnergyTrading",
  "abi": [
    {
      "inputs": [],
      "stateMutability": "nonpayable",
      "type": "constructor"
    },
    {
      "anonymous": false,
      "inputs": [
        {
          "components": [
            {
              "internalType": "uint256",
              "name": "id",
              "type": "uint256"
            },
            {
              "internalType": "address",
              "name": "buyer",
              "type": "address"
            },
            {
              "internalType": "uint256",
              "name": "amountEnergyNeeded",
              "type": "uint256"
            },
            {
              "internalType": "uint256",
              "name": "numOfMins",
              "type": "uint256"
            },
            {
              "internalType": "uint256",
              "name": "sellingPrice",
              "type": "uint256"
            },
            {
              "internalType": "address",
              "name": "seller",
              "type": "address"
            },
            {
              "internalType": "uint256",
              "name": "bidAt",
              "type": "uint256"
            },
            {
              "internalType": "uint256",
              "name": "biddingEndedAt",
              "type": "uint256"
            },
            {
              "internalType": "enum Status",
              "name": "status",
              "type": "uint8"
            }
          ],
          "indexed": false,
          "internalType": "struct Trade",
          "name": "trade",
          "type": "tuple"
        }
      ],
      "name": "TradeClosed",
      "type": "event"
    },
    {
      "inputs": [],
      "name": "admin",
      "outputs": [
        {
          "internalType": "address",
          "name": "",
          "type": "address"
        }
      ],
      "stateMutability": "view",
      "type": "function",
      "constant": true
    },
    {
      "inputs": [
        {
          "internalType": "uint256",
          "name": "_amountEnergyNeeded",
          "type": "uint256"
        },
        {
          "internalType": "uint256",
          "name": "_numOfMins",
          "type": "uint256"
        }
      ],
      "name": "createTrade",
      "outputs": [],
      "stateMutability": "payable",
      "type": "function",
      "payable": true
    },
    {
      "inputs": [
        {
          "internalType": "uint256",
          "name": "_id",
          "type": "uint256"
        }
      ],
      "name": "cancelTrade",
      "outputs": [],
      "stateMutability": "nonpayable",
      "type": "function"
    },
    {
      "inputs": [
        {
          "internalType": "uint256",
          "name": "_id",
          "type": "uint256"
        },
        {
          "internalType": "uint256",
          "name": "_price",
          "type": "uint256"
        }
      ],
      "name": "bid",
      "outputs": [],
      "stateMutability": "payable",
      "type": "function",
      "payable": true
    },
    {
      "inputs": [
        {
          "internalType": "uint256",
          "name": "_id",
          "type": "uint256"
        }
      ],
      "name": "withdrawBid",
      "outputs": [],
      "stateMutability": "nonpayable",
      "type": "function"
    },
    {
      "inputs": [
        {
          "internalType": "uint256",
          "name": "_id",
          "type": "uint256"
        }
      ],
      "name": "endBidding",
      "outputs": [],
      "stateMutability": "payable",
      "type": "function",
      "payable": true
    },
    {
      "inputs": [
        {
          "internalType": "uint256",
          "name": "_id",
          "type": "uint256"
        }
      ],
      "name": "buyerConfirmSuccessfulTrade",
      "outputs": [],
      "stateMutability": "nonpayable",
      "type": "function"
    },
    {
      "inputs": [
        {
          "internalType": "uint256",
          "name": "_id",
          "type": "uint256"
        }
      ],
      "name": "buyerMarkFailedTrade",
      "outputs": [],
      "stateMutability": "nonpayable",
      "type": "function"
    },
    {
      "inputs": [
        {
          "internalType": "uint256",
          "name": "_id",
          "type": "uint256"
        }
      ],
      "name": "buyerClaimMoneyBack",
      "outputs": [],
      "stateMutability": "nonpayable",
      "type": "function"
    },
    {
      "inputs": [
        {
          "internalType": "uint256",
          "name": "_id",
          "type": "uint256"
        }
      ],
      "name": "sellerConfirmFailedTrade",
      "outputs": [],
      "stateMutability": "nonpayable",
      "type": "function"
    },
    {
      "inputs": [
        {
          "internalType": "uint256",
          "name": "_id",
          "type": "uint256"
        }
      ],
      "name": "sellerMarkConflict",
      "outputs": [],
      "stateMutability": "nonpayable",
      "type": "function"
    },
    {
      "inputs": [
        {
          "internalType": "uint256",
          "name": "_id",
          "type": "uint256"
        }
      ],
      "name": "sellerClaimMoney",
      "outputs": [],
      "stateMutability": "nonpayable",
      "type": "function"
    },
    {
      "inputs": [
        {
          "internalType": "uint256",
          "name": "_id",
          "type": "uint256"
        },
        {
          "internalType": "bool",
          "name": "_isSuccessfulTrade",
          "type": "bool"
        }
      ],
      "name": "adminResolveConflict",
      "outputs": [],
      "stateMutability": "nonpayable",
      "type": "function"
    },
    {
      "inputs": [],
      "name": "showContractBalance",
      "outputs": [
        {
          "internalType": "uint256",
          "name": "",
          "type": "uint256"
        }
      ],
      "stateMutability": "view",
      "type": "function",
      "constant": true
    },
    {
      "inputs": [],
      "name": "fetchAllOpenedTrades",
      "outputs": [
        {
          "components": [
            {
              "internalType": "uint256",
              "name": "id",
              "type": "uint256"
            },
            {
              "internalType": "address",
              "name": "buyer",
              "type": "address"
            },
            {
              "internalType": "uint256",
              "name": "amountEnergyNeeded",
              "type": "uint256"
            },
            {
              "internalType": "uint256",
              "name": "numOfMins",
              "type": "uint256"
            },
            {
              "internalType": "uint256",
              "name": "sellingPrice",
              "type": "uint256"
            },
            {
              "internalType": "address",
              "name": "seller",
              "type": "address"
            },
            {
              "internalType": "uint256",
              "name": "bidAt",
              "type": "uint256"
            },
            {
              "internalType": "uint256",
              "name": "biddingEndedAt",
              "type": "uint256"
            },
            {
              "internalType": "enum Status",
              "name": "status",
              "type": "uint8"
            }
          ],
          "internalType": "struct Trade[]",
          "name": "",
          "type": "tuple[]"
        }
      ],
      "stateMutability": "view",
      "type": "function",
      "constant": true
    }
  ],
  "bytecode": "0x608060405234801561001057600080fd5b50336000806101000a81548173ffffffffffffffffffffffffffffffffffffffff021916908373ffffffffffffffffffffffffffffffffffffffff160217905550613fe0806100606000396000f3fe6080604052600436106100e85760003560e01c80636e82386e1161008a578063b117a10611610059578063b117a1061461028d578063e40ebc3a146102b6578063f6819ecf146102df578063f851a44014610308576100e8565b80636e82386e146101f45780638cb02ef41461021d578063901c947f1461024657806396463fc614610271576100e8565b80630eaaf4c8116100c65780630eaaf4c81461015d57806321af7a81146101865780634f63f69e146101af578063598647f8146101d8576100e8565b80630160a13c146100ed578063093755ad1461011857806309ec6cc714610134575b600080fd5b3480156100f957600080fd5b50610102610333565b60405161010f9190612f31565b60405180910390f35b610132600480360381019061012d9190612f84565b6104b6565b005b34801561014057600080fd5b5061015b60048036038101906101569190612f84565b610757565b005b34801561016957600080fd5b50610184600480360381019061017f9190612f84565b610b52565b005b34801561019257600080fd5b506101ad60048036038101906101a89190612f84565b610ecf565b005b3480156101bb57600080fd5b506101d660048036038101906101d19190612f84565b61126a565b005b6101f260048036038101906101ed9190612fb1565b6115a3565b005b34801561020057600080fd5b5061021b60048036038101906102169190613029565b6118ed565b005b34801561022957600080fd5b50610244600480360381019061023f9190612f84565b611d48565b005b34801561025257600080fd5b5061025b611f60565b6040516102689190613078565b60405180910390f35b61028b60048036038101906102869190612fb1565b611f68565b005b34801561029957600080fd5b506102b460048036038101906102af9190612f84565b612186565b005b3480156102c257600080fd5b506102dd60048036038101906102d89190612f84565b6124a0565b005b3480156102eb57600080fd5b5061030660048036038101906103019190612f84565b612656565b005b34801561031457600080fd5b5061031d612990565b60405161032a91906130a2565b60405180910390f35b60606001805480602002602001604051908101604052809291908181526020016000905b828210156104ad578382906000526020600020906009020160405180610120016040529081600082015481526020016001820160009054906101000a900473ffffffffffffffffffffffffffffffffffffffff1673ffffffffffffffffffffffffffffffffffffffff1673ffffffffffffffffffffffffffffffffffffffff1681526020016002820154815260200160038201548152602001600482015481526020016005820160009054906101000a900473ffffffffffffffffffffffffffffffffffffffff1673ffffffffffffffffffffffffffffffffffffffff1673ffffffffffffffffffffffffffffffffffffffff16815260200160068201548152602001600782015481526020016008820160009054906101000a900460ff16600681111561048857610487612d7f565b5b600681111561049a57610499612d7f565b5b8152505081526020019060010190610357565b50505050905090565b60006104c1826129b4565b9050600180549050811061050a576040517f08c379a000000000000000000000000000000000000000000000000000000000815260040161050190613166565b60405180910390fd5b6000600182815481106105205761051f613186565b5b906000526020600020906009020190508060010160009054906101000a900473ffffffffffffffffffffffffffffffffffffffff1673ffffffffffffffffffffffffffffffffffffffff163373ffffffffffffffffffffffffffffffffffffffff16146105c2576040517f08c379a00000000000000000000000000000000000000000000000000000000081526004016105b990613227565b60405180910390fd5b600073ffffffffffffffffffffffffffffffffffffffff168160050160009054906101000a900473ffffffffffffffffffffffffffffffffffffffff1673ffffffffffffffffffffffffffffffffffffffff1603610655576040517f08c379a000000000000000000000000000000000000000000000000000000000815260040161064c906132df565b60405180910390fd5b6000600681111561066957610668612d7f565b5b8160080160009054906101000a900460ff16600681111561068d5761068c612d7f565b5b146106cd576040517f08c379a00000000000000000000000000000000000000000000000000000000081526004016106c49061334b565b60405180910390fd5b80600401543414610713576040517f08c379a000000000000000000000000000000000000000000000000000000000815260040161070a906133dd565b60405180910390fd5b34816004018190555042816007018190555060028160080160006101000a81548160ff0219169083600681111561074d5761074c612d7f565b5b0217905550505050565b6000610762826129b4565b905060018054905081106107ab576040517f08c379a00000000000000000000000000000000000000000000000000000000081526004016107a290613166565b60405180910390fd5b6000600182815481106107c1576107c0613186565b5b906000526020600020906009020190508060010160009054906101000a900473ffffffffffffffffffffffffffffffffffffffff1673ffffffffffffffffffffffffffffffffffffffff163373ffffffffffffffffffffffffffffffffffffffff1614610863576040517f08c379a000000000000000000000000000000000000000000000000000000000815260040161085a90613227565b60405180910390fd5b6000600681111561087757610876612d7f565b5b8160080160009054906101000a900460ff16600681111561089b5761089a612d7f565b5b146108db576040517f08c379a00000000000000000000000000000000000000000000000000000000081526004016108d29061334b565b60405180910390fd5b600073ffffffffffffffffffffffffffffffffffffffff168160050160009054906101000a900473ffffffffffffffffffffffffffffffffffffffff1673ffffffffffffffffffffffffffffffffffffffff1614610a1d578060050160009054906101000a900473ffffffffffffffffffffffffffffffffffffffff1673ffffffffffffffffffffffffffffffffffffffff166108fc670214e8348c4f00009081150290604051600060405180830381858888f193505050501580156109a5573d6000803e3d6000fd5b508060010160009054906101000a900473ffffffffffffffffffffffffffffffffffffffff1673ffffffffffffffffffffffffffffffffffffffff166108fc66b1a2bc2ec500009081150290604051600060405180830381858888f19350505050158015610a17573d6000803e3d6000fd5b50610a91565b8060010160009054906101000a900473ffffffffffffffffffffffffffffffffffffffff1673ffffffffffffffffffffffffffffffffffffffff166108fc67016345785d8a00009081150290604051600060405180830381858888f19350505050158015610a8f573d6000803e3d6000fd5b505b60018160080160006101000a81548160ff02191690836006811115610ab957610ab8612d7f565b5b02179055507f970f95a69657c356fb5fab65a4555c4a1571711b016e0d0f2c288114b4c5493c81604051610aed91906135aa565b60405180910390a1610afe82612a12565b600180549050610b0d846129b4565b14610b4d576040517f08c379a0000000000000000000000000000000000000000000000000000000008152600401610b4490613612565b60405180910390fd5b505050565b6000610b5d826129b4565b90506001805490508110610ba6576040517f08c379a0000000000000000000000000000000000000000000000000000000008152600401610b9d90613166565b60405180910390fd5b600060018281548110610bbc57610bbb613186565b5b906000526020600020906009020190508060050160009054906101000a900473ffffffffffffffffffffffffffffffffffffffff1673ffffffffffffffffffffffffffffffffffffffff163373ffffffffffffffffffffffffffffffffffffffff1614610c5e576040517f08c379a0000000000000000000000000000000000000000000000000000000008152600401610c5590613227565b60405180910390fd5b60006006811115610c7257610c71612d7f565b5b8160080160009054906101000a900460ff166006811115610c9657610c95612d7f565b5b14610cd6576040517f08c379a0000000000000000000000000000000000000000000000000000000008152600401610ccd9061334b565b60405180910390fd5b60148160060154610ce79190613661565b421015610d29576040517f08c379a0000000000000000000000000000000000000000000000000000000008152600401610d209061379b565b60405180910390fd5b8060050160009054906101000a900473ffffffffffffffffffffffffffffffffffffffff1673ffffffffffffffffffffffffffffffffffffffff166108fc670214e8348c4f00009081150290604051600060405180830381858888f19350505050158015610d9b573d6000803e3d6000fd5b508060010160009054906101000a900473ffffffffffffffffffffffffffffffffffffffff1673ffffffffffffffffffffffffffffffffffffffff166108fc66b1a2bc2ec500009081150290604051600060405180830381858888f19350505050158015610e0d573d6000803e3d6000fd5b5060018160080160006101000a81548160ff02191690836006811115610e3657610e35612d7f565b5b02179055507f970f95a69657c356fb5fab65a4555c4a1571711b016e0d0f2c288114b4c5493c81604051610e6a91906135aa565b60405180910390a1610e7b82612a12565b600180549050610e8a846129b4565b14610eca576040517f08c379a0000000000000000000000000000000000000000000000000000000008152600401610ec190613612565b60405180910390fd5b505050565b6000610eda826129b4565b90506001805490508110610f23576040517f08c379a0000000000000000000000000000000000000000000000000000000008152600401610f1a90613166565b60405180910390fd5b600060018281548110610f3957610f38613186565b5b906000526020600020906009020190508060050160009054906101000a900473ffffffffffffffffffffffffffffffffffffffff1673ffffffffffffffffffffffffffffffffffffffff163373ffffffffffffffffffffffffffffffffffffffff1614610fdb576040517f08c379a0000000000000000000000000000000000000000000000000000000008152600401610fd29061382d565b60405180910390fd5b60026006811115610fef57610fee612d7f565b5b8160080160009054906101000a900460ff16600681111561101357611012612d7f565b5b14611053576040517f08c379a000000000000000000000000000000000000000000000000000000000815260040161104a906138e5565b60405180910390fd5b603c81600301546110649190613905565b81600701546110739190613661565b4210156110b5576040517f08c379a00000000000000000000000000000000000000000000000000000000081526004016110ac90613a8f565b60405180910390fd5b8060010160009054906101000a900473ffffffffffffffffffffffffffffffffffffffff1673ffffffffffffffffffffffffffffffffffffffff166108fc66b1a2bc2ec500009081150290604051600060405180830381858888f19350505050158015611126573d6000803e3d6000fd5b508060050160009054906101000a900473ffffffffffffffffffffffffffffffffffffffff1673ffffffffffffffffffffffffffffffffffffffff166108fc670214e8348c4f0000836004015461117d9190613661565b9081150290604051600060405180830381858888f193505050501580156111a8573d6000803e3d6000fd5b5060058160080160006101000a81548160ff021916908360068111156111d1576111d0612d7f565b5b02179055507f970f95a69657c356fb5fab65a4555c4a1571711b016e0d0f2c288114b4c5493c8160405161120591906135aa565b60405180910390a161121682612a12565b600180549050611225846129b4565b14611265576040517f08c379a000000000000000000000000000000000000000000000000000000000815260040161125c90613612565b60405180910390fd5b505050565b6000611275826129b4565b905060018054905081106112be576040517f08c379a00000000000000000000000000000000000000000000000000000000081526004016112b590613166565b60405180910390fd5b6000600182815481106112d4576112d3613186565b5b906000526020600020906009020190508060050160009054906101000a900473ffffffffffffffffffffffffffffffffffffffff1673ffffffffffffffffffffffffffffffffffffffff163373ffffffffffffffffffffffffffffffffffffffff1614611376576040517f08c379a000000000000000000000000000000000000000000000000000000000815260040161136d9061382d565b60405180910390fd5b6003600681111561138a57611389612d7f565b5b8160080160009054906101000a900460ff1660068111156113ae576113ad612d7f565b5b146113ee576040517f08c379a00000000000000000000000000000000000000000000000000000000081526004016113e5906138e5565b60405180910390fd5b8060050160009054906101000a900473ffffffffffffffffffffffffffffffffffffffff1673ffffffffffffffffffffffffffffffffffffffff166108fc66b1a2bc2ec500009081150290604051600060405180830381858888f1935050505015801561145f573d6000803e3d6000fd5b508060010160009054906101000a900473ffffffffffffffffffffffffffffffffffffffff1673ffffffffffffffffffffffffffffffffffffffff166108fc670214e8348c4f000083600401546114b69190613661565b9081150290604051600060405180830381858888f193505050501580156114e1573d6000803e3d6000fd5b5060068160080160006101000a81548160ff0219169083600681111561150a57611509612d7f565b5b02179055507f970f95a69657c356fb5fab65a4555c4a1571711b016e0d0f2c288114b4c5493c8160405161153e91906135aa565b60405180910390a161154f82612a12565b60018054905061155e846129b4565b1461159e576040517f08c379a000000000000000000000000000000000000000000000000000000000815260040161159590613612565b60405180910390fd5b505050565b60006115ae836129b4565b905060018054905081106115f7576040517f08c379a00000000000000000000000000000000000000000000000000000000081526004016115ee90613166565b60405180910390fd5b60006001828154811061160d5761160c613186565b5b906000526020600020906009020190508060010160009054906101000a900473ffffffffffffffffffffffffffffffffffffffff1673ffffffffffffffffffffffffffffffffffffffff163373ffffffffffffffffffffffffffffffffffffffff16036116af576040517f08c379a00000000000000000000000000000000000000000000000000000000081526004016116a690613b21565b60405180910390fd5b600060068111156116c3576116c2612d7f565b5b8160080160009054906101000a900460ff1660068111156116e7576116e6612d7f565b5b14611727576040517f08c379a000000000000000000000000000000000000000000000000000000000815260040161171e9061334b565b60405180910390fd5b60008160040154148061173d5750828160040154115b61177c576040517f08c379a000000000000000000000000000000000000000000000000000000000815260040161177390613bb3565b60405180910390fd5b67016345785d8a000034146117c6576040517f08c379a00000000000000000000000000000000000000000000000000000000081526004016117bd90613c45565b60405180910390fd5b600073ffffffffffffffffffffffffffffffffffffffff168160050160009054906101000a900473ffffffffffffffffffffffffffffffffffffffff1673ffffffffffffffffffffffffffffffffffffffff1614611892578060050160009054906101000a900473ffffffffffffffffffffffffffffffffffffffff1673ffffffffffffffffffffffffffffffffffffffff166108fc67016345785d8a00009081150290604051600060405180830381858888f19350505050158015611890573d6000803e3d6000fd5b505b828160040181905550338160050160006101000a81548173ffffffffffffffffffffffffffffffffffffffff021916908373ffffffffffffffffffffffffffffffffffffffff16021790555042816006018190555050505050565b60008054906101000a900473ffffffffffffffffffffffffffffffffffffffff1673ffffffffffffffffffffffffffffffffffffffff163373ffffffffffffffffffffffffffffffffffffffff161461197b576040517f08c379a000000000000000000000000000000000000000000000000000000000815260040161197290613cd7565b60405180910390fd5b6000611986836129b4565b905060018054905081106119cf576040517f08c379a00000000000000000000000000000000000000000000000000000000081526004016119c690613166565b60405180910390fd5b6000600182815481106119e5576119e4613186565b5b9060005260206000209060090201905060046006811115611a0957611a08612d7f565b5b8160080160009054906101000a900460ff166006811115611a2d57611a2c612d7f565b5b14611a6d576040517f08c379a0000000000000000000000000000000000000000000000000000000008152600401611a64906138e5565b60405180910390fd5b8215611b955760008054906101000a900473ffffffffffffffffffffffffffffffffffffffff1673ffffffffffffffffffffffffffffffffffffffff166108fc66b1a2bc2ec500009081150290604051600060405180830381858888f19350505050158015611ae0573d6000803e3d6000fd5b508060050160009054906101000a900473ffffffffffffffffffffffffffffffffffffffff1673ffffffffffffffffffffffffffffffffffffffff166108fc670214e8348c4f00008360040154611b379190613661565b9081150290604051600060405180830381858888f19350505050158015611b62573d6000803e3d6000fd5b5060058160080160006101000a81548160ff02191690836006811115611b8b57611b8a612d7f565b5b0217905550611cb3565b60008054906101000a900473ffffffffffffffffffffffffffffffffffffffff1673ffffffffffffffffffffffffffffffffffffffff166108fc66b1a2bc2ec500009081150290604051600060405180830381858888f19350505050158015611c02573d6000803e3d6000fd5b508060010160009054906101000a900473ffffffffffffffffffffffffffffffffffffffff1673ffffffffffffffffffffffffffffffffffffffff166108fc670214e8348c4f00008360040154611c599190613661565b9081150290604051600060405180830381858888f19350505050158015611c84573d6000803e3d6000fd5b5060068160080160006101000a81548160ff02191690836006811115611cad57611cac612d7f565b5b02179055505b7f970f95a69657c356fb5fab65a4555c4a1571711b016e0d0f2c288114b4c5493c81604051611ce291906135aa565b60405180910390a1611cf382612a12565b600180549050611d02856129b4565b14611d42576040517f08c379a0000000000000000000000000000000000000000000000000000000008152600401611d3990613612565b60405180910390fd5b50505050565b6000611d53826129b4565b90506001805490508110611d9c576040517f08c379a0000000000000000000000000000000000000000000000000000000008152600401611d9390613166565b60405180910390fd5b600060018281548110611db257611db1613186565b5b906000526020600020906009020190508060010160009054906101000a900473ffffffffffffffffffffffffffffffffffffffff1673ffffffffffffffffffffffffffffffffffffffff163373ffffffffffffffffffffffffffffffffffffffff1614611e54576040517f08c379a0000000000000000000000000000000000000000000000000000000008152600401611e4b9061382d565b60405180910390fd5b60026006811115611e6857611e67612d7f565b5b8160080160009054906101000a900460ff166006811115611e8c57611e8b612d7f565b5b14611ecc576040517f08c379a0000000000000000000000000000000000000000000000000000000008152600401611ec3906138e5565b60405180910390fd5b603c8160030154611edd9190613905565b8160070154611eec9190613661565b421015611f2e576040517f08c379a0000000000000000000000000000000000000000000000000000000008152600401611f2590613ddb565b60405180910390fd5b60038160080160006101000a81548160ff02191690836006811115611f5657611f55612d7f565b5b0217905550505050565b600047905090565b67016345785d8a00003414611fb2576040517f08c379a0000000000000000000000000000000000000000000000000000000008152600401611fa990613c45565b60405180910390fd5b611fba612c6f565b60026000815480929190611fcd90613dfb565b9190505581600001818152505033816020019073ffffffffffffffffffffffffffffffffffffffff16908173ffffffffffffffffffffffffffffffffffffffff16815250508281604001818152505081816060018181525050600081610100019060068111156120405761203f612d7f565b5b9081600681111561205457612053612d7f565b5b8152505060018190806001815401808255809150506001900390600052602060002090600902016000909190919091506000820151816000015560208201518160010160006101000a81548173ffffffffffffffffffffffffffffffffffffffff021916908373ffffffffffffffffffffffffffffffffffffffff16021790555060408201518160020155606082015181600301556080820151816004015560a08201518160050160006101000a81548173ffffffffffffffffffffffffffffffffffffffff021916908373ffffffffffffffffffffffffffffffffffffffff16021790555060c0820151816006015560e082015181600701556101008201518160080160006101000a81548160ff0219169083600681111561217a57612179612d7f565b5b02179055505050505050565b6000612191826129b4565b905060018054905081106121da576040517f08c379a00000000000000000000000000000000000000000000000000000000081526004016121d190613166565b60405180910390fd5b6000600182815481106121f0576121ef613186565b5b906000526020600020906009020190508060010160009054906101000a900473ffffffffffffffffffffffffffffffffffffffff1673ffffffffffffffffffffffffffffffffffffffff163373ffffffffffffffffffffffffffffffffffffffff1614612292576040517f08c379a00000000000000000000000000000000000000000000000000000000081526004016122899061382d565b60405180910390fd5b600360068111156122a6576122a5612d7f565b5b8160080160009054906101000a900460ff1660068111156122ca576122c9612d7f565b5b1461230a576040517f08c379a0000000000000000000000000000000000000000000000000000000008152600401612301906138e5565b60405180910390fd5b60b4816007015461231b9190613661565b42101561235d576040517f08c379a000000000000000000000000000000000000000000000000000000000815260040161235490613f27565b60405180910390fd5b8060010160009054906101000a900473ffffffffffffffffffffffffffffffffffffffff1673ffffffffffffffffffffffffffffffffffffffff166108fc6702c68af0bb14000083600401546123b39190613661565b9081150290604051600060405180830381858888f193505050501580156123de573d6000803e3d6000fd5b5060068160080160006101000a81548160ff0219169083600681111561240757612406612d7f565b5b02179055507f970f95a69657c356fb5fab65a4555c4a1571711b016e0d0f2c288114b4c5493c8160405161243b91906135aa565b60405180910390a161244c82612a12565b60018054905061245b846129b4565b1461249b576040517f08c379a000000000000000000000000000000000000000000000000000000000815260040161249290613612565b60405180910390fd5b505050565b60006124ab826129b4565b905060018054905081106124f4576040517f08c379a00000000000000000000000000000000000000000000000000000000081526004016124eb90613166565b60405180910390fd5b60006001828154811061250a57612509613186565b5b906000526020600020906009020190508060050160009054906101000a900473ffffffffffffffffffffffffffffffffffffffff1673ffffffffffffffffffffffffffffffffffffffff163373ffffffffffffffffffffffffffffffffffffffff16146125ac576040517f08c379a00000000000000000000000000000000000000000000000000000000081526004016125a39061382d565b60405180910390fd5b600360068111156125c0576125bf612d7f565b5b8160080160009054906101000a900460ff1660068111156125e4576125e3612d7f565b5b14612624576040517f08c379a000000000000000000000000000000000000000000000000000000000815260040161261b906138e5565b60405180910390fd5b60048160080160006101000a81548160ff0219169083600681111561264c5761264b612d7f565b5b0217905550505050565b6000612661826129b4565b905060018054905081106126aa576040517f08c379a00000000000000000000000000000000000000000000000000000000081526004016126a190613166565b60405180910390fd5b6000600182815481106126c0576126bf613186565b5b906000526020600020906009020190508060010160009054906101000a900473ffffffffffffffffffffffffffffffffffffffff1673ffffffffffffffffffffffffffffffffffffffff163373ffffffffffffffffffffffffffffffffffffffff1614612762576040517f08c379a00000000000000000000000000000000000000000000000000000000081526004016127599061382d565b60405180910390fd5b6002600681111561277657612775612d7f565b5b8160080160009054906101000a900460ff16600681111561279a57612799612d7f565b5b146127da576040517f08c379a00000000000000000000000000000000000000000000000000000000081526004016127d1906138e5565b60405180910390fd5b8060050160009054906101000a900473ffffffffffffffffffffffffffffffffffffffff1673ffffffffffffffffffffffffffffffffffffffff166108fc67016345785d8a000083600401546128309190613661565b9081150290604051600060405180830381858888f1935050505015801561285b573d6000803e3d6000fd5b508060010160009054906101000a900473ffffffffffffffffffffffffffffffffffffffff1673ffffffffffffffffffffffffffffffffffffffff166108fc67016345785d8a00009081150290604051600060405180830381858888f193505050501580156128ce573d6000803e3d6000fd5b5060058160080160006101000a81548160ff021916908360068111156128f7576128f6612d7f565b5b02179055507f970f95a69657c356fb5fab65a4555c4a1571711b016e0d0f2c288114b4c5493c8160405161292b91906135aa565b60405180910390a161293c82612a12565b60018054905061294b846129b4565b1461298b576040517f08c379a000000000000000000000000000000000000000000000000000000000815260040161298290613612565b60405180910390fd5b505050565b60008054906101000a900473ffffffffffffffffffffffffffffffffffffffff1681565b600080600090505b600180549050811015612a095782600182815481106129de576129dd613186565b5b9060005260206000209060090201600001540315612a09578080612a0190613dfb565b9150506129bc565b80915050919050565b6001808080549050612a249190613f47565b81548110612a3557612a34613186565b5b906000526020600020906009020160018281548110612a5757612a56613186565b5b9060005260206000209060090201600082015481600001556001820160009054906101000a900473ffffffffffffffffffffffffffffffffffffffff168160010160006101000a81548173ffffffffffffffffffffffffffffffffffffffff021916908373ffffffffffffffffffffffffffffffffffffffff1602179055506002820154816002015560038201548160030155600482015481600401556005820160009054906101000a900473ffffffffffffffffffffffffffffffffffffffff168160050160006101000a81548173ffffffffffffffffffffffffffffffffffffffff021916908373ffffffffffffffffffffffffffffffffffffffff16021790555060068201548160060155600782015481600701556008820160009054906101000a900460ff168160080160006101000a81548160ff02191690836006811115612ba757612ba6612d7f565b5b02179055509050506001805480612bc157612bc0613f7b565b5b60019003818190600052602060002090600902016000808201600090556001820160006101000a81549073ffffffffffffffffffffffffffffffffffffffff02191690556002820160009055600382016000905560048201600090556005820160006101000a81549073ffffffffffffffffffffffffffffffffffffffff0219169055600682016000905560078201600090556008820160006101000a81549060ff02191690555050905550565b60405180610120016040528060008152602001600073ffffffffffffffffffffffffffffffffffffffff168152602001600081526020016000815260200160008152602001600073ffffffffffffffffffffffffffffffffffffffff168152602001600081526020016000815260200160006006811115612cf357612cf2612d7f565b5b81525090565b600081519050919050565b600082825260208201905092915050565b6000819050602082019050919050565b6000819050919050565b612d3881612d25565b82525050565b600073ffffffffffffffffffffffffffffffffffffffff82169050919050565b6000612d6982612d3e565b9050919050565b612d7981612d5e565b82525050565b7f4e487b7100000000000000000000000000000000000000000000000000000000600052602160045260246000fd5b60078110612dbf57612dbe612d7f565b5b50565b6000819050612dd082612dae565b919050565b6000612de082612dc2565b9050919050565b612df081612dd5565b82525050565b61012082016000820151612e0d6000850182612d2f565b506020820151612e206020850182612d70565b506040820151612e336040850182612d2f565b506060820151612e466060850182612d2f565b506080820151612e596080850182612d2f565b5060a0820151612e6c60a0850182612d70565b5060c0820151612e7f60c0850182612d2f565b5060e0820151612e9260e0850182612d2f565b50610100820151612ea7610100850182612de7565b50505050565b6000612eb98383612df6565b6101208301905092915050565b6000602082019050919050565b6000612ede82612cf9565b612ee88185612d04565b9350612ef383612d15565b8060005b83811015612f24578151612f0b8882612ead565b9750612f1683612ec6565b925050600181019050612ef7565b5085935050505092915050565b60006020820190508181036000830152612f4b8184612ed3565b905092915050565b600080fd5b612f6181612d25565b8114612f6c57600080fd5b50565b600081359050612f7e81612f58565b92915050565b600060208284031215612f9a57612f99612f53565b5b6000612fa884828501612f6f565b91505092915050565b60008060408385031215612fc857612fc7612f53565b5b6000612fd685828601612f6f565b9250506020612fe785828601612f6f565b9150509250929050565b60008115159050919050565b61300681612ff1565b811461301157600080fd5b50565b60008135905061302381612ffd565b92915050565b600080604083850312156130405761303f612f53565b5b600061304e85828601612f6f565b925050602061305f85828601613014565b9150509250929050565b61307281612d25565b82525050565b600060208201905061308d6000830184613069565b92915050565b61309c81612d5e565b82525050565b60006020820190506130b76000830184613093565b92915050565b600082825260208201905092915050565b7f5472616465204e6f7420466f756e6420284d6f73742070726f6261626c79206960008201527f742773206e6f206c6f6e676572206f70656e65642c20636865636b20636c6f7360208201527f6564207472616465732129000000000000000000000000000000000000000000604082015250565b6000613150604b836130bd565b915061315b826130ce565b606082019050919050565b6000602082019050818103600083015261317f81613143565b9050919050565b7f4e487b7100000000000000000000000000000000000000000000000000000000600052603260045260246000fd5b7f596f75206172656e277420616c6c6f77656420746f20706572666f726d20746860008201527f697320616374696f6e0000000000000000000000000000000000000000000000602082015250565b60006132116029836130bd565b915061321c826131b5565b604082019050919050565b6000602082019050818103600083015261324081613204565b9050919050565b7f596f752063616e6e6f7420656e642062696464696e6720696620796f7520686160008201527f76656e277420726563656976656420616e79206269642e20557365202243616e60208201527f63656c2220696e73746561640000000000000000000000000000000000000000604082015250565b60006132c9604c836130bd565b91506132d482613247565b606082019050919050565b600060208201905081810360008301526132f8816132bc565b9050919050565b7f5468652062696464696e672068617320616c726561647920656e646564000000600082015250565b6000613335601d836130bd565b9150613340826132ff565b602082019050919050565b6000602082019050818103600083015261336481613328565b9050919050565b7f596f75206d757374207472616e7366657220746865206d6f6e657920696e206160008201527f6476616e63650000000000000000000000000000000000000000000000000000602082015250565b60006133c76026836130bd565b91506133d28261336b565b604082019050919050565b600060208201905081810360008301526133f6816133ba565b9050919050565b60008160001c9050919050565b6000819050919050565b6000613427613422836133fd565b61340a565b9050919050565b600073ffffffffffffffffffffffffffffffffffffffff82169050919050565b600061346161345c836133fd565b61342e565b9050919050565b600060ff82169050919050565b6000613488613483836133fd565b613468565b9050919050565b610120820160008083015490506134a581613414565b6134b26000860182612d2f565b50600183015490506134c38161344e565b6134d06020860182612d70565b50600283015490506134e181613414565b6134ee6040860182612d2f565b50600383015490506134ff81613414565b61350c6060860182612d2f565b506004830154905061351d81613414565b61352a6080860182612d2f565b506005830154905061353b8161344e565b61354860a0860182612d70565b506006830154905061355981613414565b61356660c0860182612d2f565b506007830154905061357781613414565b61358460e0860182612d2f565b506008830154905061359581613475565b6135a3610100860182612de7565b5050505050565b6000610120820190506135c0600083018461348f565b92915050565b7f4552524f523a205472616e736174696f6e2072657665727465642e0000000000600082015250565b60006135fc601b836130bd565b9150613607826135c6565b602082019050919050565b6000602082019050818103600083015261362b816135ef565b9050919050565b7f4e487b7100000000000000000000000000000000000000000000000000000000600052601160045260246000fd5b600061366c82612d25565b915061367783612d25565b9250827fffffffffffffffffffffffffffffffffffffffffffffffffffffffffffffffff038211156136ac576136ab613632565b5b828201905092915050565b7f596f752063616e20776974686472617720796f757220626964204f4e4c59206960008201527f66207468652063726561746f72206f66207468697320747261646520646f657360208201527f6e277420656e642062696464696e672077697468696e2031206d696e7574652060408201527f66726f6d207468652074696d6520796f75207375636365737366756c6c79207060608201527f6c6163656420796f757220626964000000000000000000000000000000000000608082015250565b6000613785608e836130bd565b9150613790826136b7565b60a082019050919050565b600060208201905081810360008301526137b481613778565b9050919050565b7f596f75277265206e6f7420616c6c6f77656420746f20706572666f726d20746860008201527f697320616374696f6e2100000000000000000000000000000000000000000000602082015250565b6000613817602a836130bd565b9150613822826137bb565b604082019050919050565b600060208201905081810360008301526138468161380a565b9050919050565b7f5468652063757272656e7420737461747573206f66207468652074726164652060008201527f646f65736e2774207065726d697420796f7520746f20706572666f726d20746860208201527f697320616374696f6e0000000000000000000000000000000000000000000000604082015250565b60006138cf6049836130bd565b91506138da8261384d565b606082019050919050565b600060208201905081810360008301526138fe816138c2565b9050919050565b600061391082612d25565b915061391b83612d25565b9250817fffffffffffffffffffffffffffffffffffffffffffffffffffffffffffffffff048311821515161561395457613953613632565b5b828202905092915050565b7f596f752063616e20636c61696d20796f7572206d6f6e6579206261636b206f6e60008201527f6c792069662074686520627579657220646f65736e277420636f6e6669726d2060208201527f73756363657373206e6f72206d61726b2074686520747261646520617320612060408201527f6661696c6564206f6e652077697468696e20746865206e756d626572206f662060608201527f6d696e757465732073706563696669656420696e20746865207472616465207360808201527f74617274696e672066726f6d207468652074696d6520686520656e646564207460a08201527f68652062696464696e670000000000000000000000000000000000000000000060c082015250565b6000613a7960ca836130bd565b9150613a848261395f565b60e082019050919050565b60006020820190508181036000830152613aa881613a6c565b9050919050565b7f596f752063616e277420626964206f6e206120747261646520796f752068617660008201527f6520637265617465642121000000000000000000000000000000000000000000602082015250565b6000613b0b602b836130bd565b9150613b1682613aaf565b604082019050919050565b60006020820190508181036000830152613b3a81613afe565b9050919050565b7f546865726520697320616c72656164792061206c6f776572206f72206571756160008201527f6c20626964210000000000000000000000000000000000000000000000000000602082015250565b6000613b9d6026836130bd565b9150613ba882613b41565b604082019050919050565b60006020820190508181036000830152613bcc81613b90565b9050919050565b7f596f75206d7573742073656e6420612076616c7565206f6620302e312045544860008201527f206173206465706f736974210000000000000000000000000000000000000000602082015250565b6000613c2f602c836130bd565b9150613c3a82613bd3565b604082019050919050565b60006020820190508181036000830152613c5e81613c22565b9050919050565b7f4f6e6c792061646d696e20697320616c6c6f77656420746f20706572666f726d60008201527f207468697320616374696f6e2100000000000000000000000000000000000000602082015250565b6000613cc1602d836130bd565b9150613ccc82613c65565b604082019050919050565b60006020820190508181036000830152613cf081613cb4565b9050919050565b7f596f752063616e2774206d61726b2061207472616465206173204641494c454460008201527f206265666f726520746865206e756d626572206f66206d696e7574657320737060208201527f6563696669656420696e20746865207472616465207374617274696e6720667260408201527f6f6d207468652074696d6520796f7520656e646564207468652062696464696e60608201527f6700000000000000000000000000000000000000000000000000000000000000608082015250565b6000613dc56081836130bd565b9150613dd082613cf7565b60a082019050919050565b60006020820190508181036000830152613df481613db8565b9050919050565b6000613e0682612d25565b91507fffffffffffffffffffffffffffffffffffffffffffffffffffffffffffffffff8203613e3857613e37613632565b5b600182019050919050565b7f596f752063616e20636c61696d20796f7572206d6f6e6579206261636b206f6e60008201527f6c79206966207468652073656c6c657220646f65736e277420636f6e6669726d60208201527f206661696c757265206e6f7220726571756573742061646d696e277320696e7460408201527f657276656e74696f6e2077697468696e2033206d696e757465732066726f6d2060608201527f7468652074696d6520686520776f6e207468652062696464696e670000000000608082015250565b6000613f11609b836130bd565b9150613f1c82613e43565b60a082019050919050565b60006020820190508181036000830152613f4081613f04565b9050919050565b6000613f5282612d25565b9150613f5d83612d25565b925082821015613f7057613f6f613632565b5b828203905092915050565b7f4e487b7100000000000000000000000000000000000000000000000000000000600052603160045260246000fdfea264697066735822122092db17fb4a88f1dc5074b01bc2c474f857bb7408f7c674cd0c1ed204c9d92af164736f6c634300080e0033",
  "immutableReferences": {},
  "source": "// SPDX-License-Identifier: MIT\npragma solidity >=0.7.0 <0.9.0;\n\nenum Status { RUNNING, CANCELED, PENDING_BUYER_CONFIRMATION, PENDING_SELLER_CONFIRMATION, CONFLICT, SUCCESSFUL, FAILED }\n\nstruct Trade {\n    uint id; \n    address buyer;\n    uint amountEnergyNeeded;\n    uint numOfMins; // uint numOfHours;\n    uint sellingPrice;\n    address seller;\n    uint bidAt;\n    uint biddingEndedAt;\n    Status status;\n}\n\ncontract EnergyTrading {\n    address public admin;\n    constructor() { admin = msg.sender; }\n\n    modifier onlyAdmin() {\n        require(msg.sender == admin, \"Only admin is allowed to perform this action!\");\n        _;\n    }\n\n    Trade[] internal openedTrades;\n    uint internal currentNumOfAllTrades;\n\n    event TradeClosed(Trade trade);\n\n    function createTrade(uint _amountEnergyNeeded, uint _numOfMins) external payable { // _numOfHours\n        require(msg.value == 100000000000000000, \"You must send a value of 0.1 ETH as deposit!\");\n        Trade memory newTrade;\n        newTrade.id = currentNumOfAllTrades++;\n        newTrade.buyer = msg.sender;\n        newTrade.amountEnergyNeeded = _amountEnergyNeeded;\n        newTrade.numOfMins = _numOfMins; // newTrade.numOfHours = _numOfHours;\n        newTrade.status = Status.RUNNING;\n        openedTrades.push(newTrade);\n    }\n\n    function cancelTrade(uint _id) external {\n        uint tradeIndex = findTrade(_id);\n        require(tradeIndex < openedTrades.length, \"Trade Not Found (Most probably it's no longer opened, check closed trades!)\");\n        Trade storage targetedTrade = openedTrades[tradeIndex];\n        require(msg.sender == targetedTrade.buyer, \"You aren't allowed to perform this action\");\n        require(targetedTrade.status == Status.RUNNING, \"The bidding has already ended\");\n\n        if (targetedTrade.seller != address(0)) {\n            payable(targetedTrade.seller).transfer(150000000000000000); // 0.15 ETH\n            payable(targetedTrade.buyer).transfer(50000000000000000); // 0.05 ETH\n        } else {\n            payable(targetedTrade.buyer).transfer(100000000000000000); // 0.1 ETH\n        }\n        targetedTrade.status = Status.CANCELED;\n        emit TradeClosed({trade: targetedTrade});\n        removeFromOpenedTrades(tradeIndex);\n\n        require(findTrade(_id) == openedTrades.length, \"ERROR: Transation reverted.\");\n    }\n\n    function bid(uint _id, uint _price) external payable {\n        uint tradeIndex = findTrade(_id);\n        require(tradeIndex < openedTrades.length, \"Trade Not Found (Most probably it's no longer opened, check closed trades!)\");\n        Trade storage targetedTrade = openedTrades[tradeIndex];\n        require(msg.sender != targetedTrade.buyer, \"You can't bid on a trade you have created!!\");\n        require(targetedTrade.status == Status.RUNNING, \"The bidding has already ended\");\n        require(targetedTrade.sellingPrice == 0 || targetedTrade.sellingPrice > _price, \"There is already a lower or equal bid!\");\n        require(msg.value == 100000000000000000, \"You must send a value of 0.1 ETH as deposit!\");\n\n        if (targetedTrade.seller != address(0)) {\n            payable(targetedTrade.seller).transfer(100000000000000000); // 0.1 ETH (deposit)\n        }\n        targetedTrade.sellingPrice = _price;\n        targetedTrade.seller = msg.sender;\n        targetedTrade.bidAt = block.timestamp;\n    }\n\n    function withdrawBid(uint _id) external {\n        uint tradeIndex = findTrade(_id);\n        require(tradeIndex < openedTrades.length, \"Trade Not Found (Most probably it's no longer opened, check closed trades!)\");\n        Trade storage targetedTrade = openedTrades[tradeIndex];\n        require(msg.sender == targetedTrade.seller, \"You aren't allowed to perform this action\");\n        require(targetedTrade.status == Status.RUNNING, \"The bidding has already ended\");\n        require(block.timestamp >= targetedTrade.bidAt + 20, \"You can withdraw your bid ONLY if the creator of this trade doesn't end bidding within 1 minute from the time you successfully placed your bid\");\n\n        payable(targetedTrade.seller).transfer(150000000000000000); // 0.15 ETH\n        payable(targetedTrade.buyer).transfer(50000000000000000); // 0.05 ETH\n        targetedTrade.status = Status.CANCELED;\n        emit TradeClosed({trade: targetedTrade});\n        removeFromOpenedTrades(tradeIndex);\n\n        require(findTrade(_id) == openedTrades.length, \"ERROR: Transation reverted.\");\n    }\n\n    function endBidding(uint _id) external payable {\n        uint tradeIndex = findTrade(_id);\n        require(tradeIndex < openedTrades.length, \"Trade Not Found (Most probably it's no longer opened, check closed trades!)\");\n        Trade storage targetedTrade = openedTrades[tradeIndex];\n        require(msg.sender == targetedTrade.buyer, \"You aren't allowed to perform this action\");\n        require(targetedTrade.seller != address(0), \"You cannot end bidding if you haven't received any bid. Use \\\"Cancel\\\" instead\");\n        require(targetedTrade.status == Status.RUNNING, \"The bidding has already ended\");\n        require(msg.value == targetedTrade.sellingPrice, \"You must transfer the money in advance\");\n\n        targetedTrade.sellingPrice = msg.value;\n        targetedTrade.biddingEndedAt = block.timestamp;\n        targetedTrade.status = Status.PENDING_BUYER_CONFIRMATION;        \n        /** We may emit an event here, if we want to notify an IoT component that is listening to this kind of event to act accordingly (Start tranfering energy!) */\n    }\n\n    function buyerConfirmSuccessfulTrade(uint _id) external {\n        uint tradeIndex = findTrade(_id);\n        require(tradeIndex < openedTrades.length, \"Trade Not Found (Most probably it's no longer opened, check closed trades!)\");\n        Trade storage targetedTrade = openedTrades[tradeIndex];\n        require(msg.sender == targetedTrade.buyer, \"You're not allowed to perform this action!\");\n        require(targetedTrade.status == Status.PENDING_BUYER_CONFIRMATION, \"The current status of the trade doesn't permit you to perform this action\");\n\n        payable(targetedTrade.seller).transfer(targetedTrade.sellingPrice + 100000000000000000); // selling price + 0.1 ETH (deposit)\n        payable(targetedTrade.buyer).transfer(100000000000000000); // 0.1 ETH (deposit)\n        targetedTrade.status = Status.SUCCESSFUL;\n        emit TradeClosed({trade: targetedTrade});\n        removeFromOpenedTrades(tradeIndex);\n\n        require(findTrade(_id) == openedTrades.length, \"ERROR: Transation reverted.\");        \n    }\n\n    function buyerMarkFailedTrade(uint _id) external {\n        uint tradeIndex = findTrade(_id);\n        require(tradeIndex < openedTrades.length, \"Trade Not Found (Most probably it's no longer opened, check closed trades!)\");\n        Trade storage targetedTrade = openedTrades[tradeIndex];\n        require(msg.sender == targetedTrade.buyer, \"You're not allowed to perform this action!\");\n        require(targetedTrade.status == Status.PENDING_BUYER_CONFIRMATION, \"The current status of the trade doesn't permit you to perform this action\");\n        // require(block.timestamp >= targetedTrade.timeBiddingEnded + targetedTrade.numOfHours * 60 * 60, \"You can't mark a trade as FAILED before the number of hours specified in the trade starting from the time you ended the bidding\");\n        require(block.timestamp >= targetedTrade.biddingEndedAt + targetedTrade.numOfMins * 60, \"You can't mark a trade as FAILED before the number of minutes specified in the trade starting from the time you ended the bidding\");\n\n        targetedTrade.status = Status.PENDING_SELLER_CONFIRMATION;\n    }\n\n    function buyerClaimMoneyBack(uint _id) external {\n        uint tradeIndex = findTrade(_id);\n        require(tradeIndex < openedTrades.length, \"Trade Not Found (Most probably it's no longer opened, check closed trades!)\");\n        Trade storage targetedTrade = openedTrades[tradeIndex];\n        require(msg.sender == targetedTrade.buyer, \"You're not allowed to perform this action!\");\n        require(targetedTrade.status == Status.PENDING_SELLER_CONFIRMATION, \"The current status of the trade doesn't permit you to perform this action\");\n        // require(block.timestamp >= targetedTrade.timeBiddingEnded + 72 * 60 * 60, \"You can claim your money back only if the seller doesn't confirm failure nor request admin's intervention within 3 days from the time he won the bidding\");\n        require(block.timestamp >= targetedTrade.biddingEndedAt + 3 * 60, \"You can claim your money back only if the seller doesn't confirm failure nor request admin's intervention within 3 minutes from the time he won the bidding\");\n\n        payable(targetedTrade.buyer).transfer(targetedTrade.sellingPrice + 200000000000000000); // 0.2 ETH (deposit of both buyer + seller)\n        targetedTrade.status = Status.FAILED;\n        emit TradeClosed({trade: targetedTrade});\n        removeFromOpenedTrades(tradeIndex);\n\n        require(findTrade(_id) == openedTrades.length, \"ERROR: Transation reverted.\");           \n    }\n\n    function sellerConfirmFailedTrade(uint _id) external {\n        uint tradeIndex = findTrade(_id);\n        require(tradeIndex < openedTrades.length, \"Trade Not Found (Most probably it's no longer opened, check closed trades!)\");\n        Trade storage targetedTrade = openedTrades[tradeIndex];\n        require(msg.sender == targetedTrade.seller, \"You're not allowed to perform this action!\");\n        require(targetedTrade.status == Status.PENDING_SELLER_CONFIRMATION, \"The current status of the trade doesn't permit you to perform this action\");\n\n        payable(targetedTrade.seller).transfer(50000000000000000); // 0.05 ETH (50% of seller deposit)\n        payable(targetedTrade.buyer).transfer(targetedTrade.sellingPrice + 150000000000000000); // refund + 0.15 ETH (buyer deposit + 50% of seller deposit)\n        targetedTrade.status = Status.FAILED;\n        emit TradeClosed({trade: targetedTrade});\n        removeFromOpenedTrades(tradeIndex);\n\n        require(findTrade(_id) == openedTrades.length, \"ERROR: Transation reverted.\"); \n    }\n\n    function sellerMarkConflict(uint _id) external {\n        uint tradeIndex = findTrade(_id);\n        require(tradeIndex < openedTrades.length, \"Trade Not Found (Most probably it's no longer opened, check closed trades!)\");\n        Trade storage targetedTrade = openedTrades[tradeIndex];\n        require(msg.sender == targetedTrade.seller, \"You're not allowed to perform this action!\");\n        require(targetedTrade.status == Status.PENDING_SELLER_CONFIRMATION, \"The current status of the trade doesn't permit you to perform this action\");\n\n        targetedTrade.status = Status.CONFLICT;\n    }\n\n    function sellerClaimMoney(uint _id) external {\n        uint tradeIndex = findTrade(_id);\n        require(tradeIndex < openedTrades.length, \"Trade Not Found (Most probably it's no longer opened, check closed trades!)\");\n        \n        Trade storage targetedTrade = openedTrades[tradeIndex];\n        require(msg.sender == targetedTrade.seller, \"You're not allowed to perform this action!\");\n        require(targetedTrade.status == Status.PENDING_BUYER_CONFIRMATION, \"The current status of the trade doesn't permit you to perform this action\");\n        // require(block.timestamp >= targetedTrade.timeBiddingEnded + targetedTrade.numOfHours * 60 * 60, \"You can claim your money back only if the buyer doesn't confirm success nor mark the trade as a failed one within the number of hours specified in the trade starting from the time he ended the bidding\");\n        require(block.timestamp >= targetedTrade.biddingEndedAt + targetedTrade.numOfMins * 60, \"You can claim your money back only if the buyer doesn't confirm success nor mark the trade as a failed one within the number of minutes specified in the trade starting from the time he ended the bidding\");\n\n        payable(targetedTrade.buyer).transfer(50000000000000000); // 0.05 ETH (50% of buyer deposit)\n        payable(targetedTrade.seller).transfer(targetedTrade.sellingPrice + 150000000000000000); // selling price + 0.15 ETH (seller deposit + 50% of buyer deposit)\n        targetedTrade.status = Status.SUCCESSFUL;\n        emit TradeClosed({trade: targetedTrade});\n        removeFromOpenedTrades(tradeIndex);\n\n        require(findTrade(_id) == openedTrades.length, \"ERROR: Transation reverted.\"); \n    }\n\n    function adminResolveConflict(uint _id, bool _isSuccessfulTrade) onlyAdmin external {\n        uint tradeIndex = findTrade(_id);\n        require(tradeIndex < openedTrades.length, \"Trade Not Found (Most probably it's no longer opened, check closed trades!)\");\n        Trade storage targetedTrade = openedTrades[tradeIndex];\n        require(targetedTrade.status == Status.CONFLICT, \"The current status of the trade doesn't permit you to perform this action\");\n        \n        if (_isSuccessfulTrade) {\n            payable(admin).transfer(50000000000000000); // 0.05 ETH (50% of buyer deposit)\n            payable(targetedTrade.seller).transfer(targetedTrade.sellingPrice + 150000000000000000); // selling price + 0.15 ETH (seller deposit + 50% of buyer deposit)\n            targetedTrade.status = Status.SUCCESSFUL;\n        } else {\n            payable(admin).transfer(50000000000000000); // 0.05 ETH (50% of seller deposit)\n            payable(targetedTrade.buyer).transfer(targetedTrade.sellingPrice + 150000000000000000); // refund + 0.15 ETH (buyer deposit + 50% of seller deposit)\n            targetedTrade.status = Status.FAILED;\n        }\n        emit TradeClosed({trade: targetedTrade});\n        removeFromOpenedTrades(tradeIndex);\n\n        require(findTrade(_id) == openedTrades.length, \"ERROR: Transation reverted.\");\n    }\n\n    function findTrade(uint _id) internal view returns(uint) {\n        uint i = 0;\n        for (; i < openedTrades.length; i++) {\n            if (openedTrades[i].id == _id) {\n                break;\n            }      \n        }\n        return i;\n    }\n\n    function removeFromOpenedTrades(uint _index) internal {\n        openedTrades[_index] = openedTrades[openedTrades.length - 1];\n        openedTrades.pop();\n    }\n\n    /* Show contract state */\n\n    function showContractBalance() external view returns(uint) { return address(this).balance; }\n\n    function fetchAllOpenedTrades() external view returns(Trade[] memory) { return openedTrades; }\n}\n",
  "sourcePath": "/home/hany/Ethereum-Projects/fyp-energy-trading/contracts/EnergyTrading.sol",
  "compiler": {
    "name": "solc",
    "version": "0.8.14+commit.80d49f37.Emscripten.clang"
  },
  "schemaVersion": "3.4.5",
  "updatedAt": "2022-06-02T05:05:56.743Z",
  "networkType": "ethereum",
  "devdoc": {
    "kind": "dev",
    "methods": {},
    "version": 1
  },
  "userdoc": {
    "kind": "user",
    "methods": {},
    "version": 1
  }
}