{
  "contractName": "EnergyTrading",
  "abi": [
    {
      "inputs": [],
      "stateMutability": "nonpayable",
      "type": "constructor"
    },
    {
      "anonymous": false,
      "inputs": [
        {
          "components": [
            {
              "internalType": "uint256",
              "name": "id",
              "type": "uint256"
            },
            {
              "internalType": "address",
              "name": "buyer",
              "type": "address"
            },
            {
              "internalType": "uint256",
              "name": "amountEnergyNeeded",
              "type": "uint256"
            },
            {
              "internalType": "uint256",
              "name": "numOfMins",
              "type": "uint256"
            },
            {
              "internalType": "uint256",
              "name": "sellingPrice",
              "type": "uint256"
            },
            {
              "internalType": "address",
              "name": "seller",
              "type": "address"
            },
            {
              "internalType": "uint256",
              "name": "bidAt",
              "type": "uint256"
            },
            {
              "internalType": "uint256",
              "name": "biddingEndedAt",
              "type": "uint256"
            },
            {
              "internalType": "uint256",
              "name": "markedFailedAt",
              "type": "uint256"
            },
            {
              "internalType": "enum Status",
              "name": "status",
              "type": "uint8"
            }
          ],
          "indexed": false,
          "internalType": "struct Trade",
          "name": "trade",
          "type": "tuple"
        }
      ],
      "name": "TradeClosed",
      "type": "event"
    },
    {
      "inputs": [],
      "name": "getAdminAddress",
      "outputs": [
        {
          "internalType": "address",
          "name": "",
          "type": "address"
        }
      ],
      "stateMutability": "view",
      "type": "function",
      "constant": true
    },
    {
      "inputs": [],
      "name": "fetchAllOpenedTrades",
      "outputs": [
        {
          "components": [
            {
              "internalType": "uint256",
              "name": "id",
              "type": "uint256"
            },
            {
              "internalType": "address",
              "name": "buyer",
              "type": "address"
            },
            {
              "internalType": "uint256",
              "name": "amountEnergyNeeded",
              "type": "uint256"
            },
            {
              "internalType": "uint256",
              "name": "numOfMins",
              "type": "uint256"
            },
            {
              "internalType": "uint256",
              "name": "sellingPrice",
              "type": "uint256"
            },
            {
              "internalType": "address",
              "name": "seller",
              "type": "address"
            },
            {
              "internalType": "uint256",
              "name": "bidAt",
              "type": "uint256"
            },
            {
              "internalType": "uint256",
              "name": "biddingEndedAt",
              "type": "uint256"
            },
            {
              "internalType": "uint256",
              "name": "markedFailedAt",
              "type": "uint256"
            },
            {
              "internalType": "enum Status",
              "name": "status",
              "type": "uint8"
            }
          ],
          "internalType": "struct Trade[]",
          "name": "",
          "type": "tuple[]"
        }
      ],
      "stateMutability": "view",
      "type": "function",
      "constant": true
    },
    {
      "inputs": [
        {
          "internalType": "uint256",
          "name": "_amountEnergyNeeded",
          "type": "uint256"
        },
        {
          "internalType": "uint256",
          "name": "_numOfMins",
          "type": "uint256"
        }
      ],
      "name": "createTrade",
      "outputs": [],
      "stateMutability": "payable",
      "type": "function",
      "payable": true
    },
    {
      "inputs": [
        {
          "internalType": "uint256",
          "name": "_id",
          "type": "uint256"
        }
      ],
      "name": "cancelTrade",
      "outputs": [],
      "stateMutability": "nonpayable",
      "type": "function"
    },
    {
      "inputs": [
        {
          "internalType": "uint256",
          "name": "_id",
          "type": "uint256"
        },
        {
          "internalType": "uint256",
          "name": "_price",
          "type": "uint256"
        }
      ],
      "name": "bid",
      "outputs": [],
      "stateMutability": "payable",
      "type": "function",
      "payable": true
    },
    {
      "inputs": [
        {
          "internalType": "uint256",
          "name": "_id",
          "type": "uint256"
        }
      ],
      "name": "withdrawBid",
      "outputs": [],
      "stateMutability": "nonpayable",
      "type": "function"
    },
    {
      "inputs": [
        {
          "internalType": "uint256",
          "name": "_id",
          "type": "uint256"
        }
      ],
      "name": "endBidding",
      "outputs": [],
      "stateMutability": "payable",
      "type": "function",
      "payable": true
    },
    {
      "inputs": [
        {
          "internalType": "uint256",
          "name": "_id",
          "type": "uint256"
        }
      ],
      "name": "buyerConfirmSuccessfulTrade",
      "outputs": [],
      "stateMutability": "nonpayable",
      "type": "function"
    },
    {
      "inputs": [
        {
          "internalType": "uint256",
          "name": "_id",
          "type": "uint256"
        }
      ],
      "name": "buyerMarkFailedTrade",
      "outputs": [],
      "stateMutability": "nonpayable",
      "type": "function"
    },
    {
      "inputs": [
        {
          "internalType": "uint256",
          "name": "_id",
          "type": "uint256"
        }
      ],
      "name": "buyerClaimMoneyBack",
      "outputs": [],
      "stateMutability": "nonpayable",
      "type": "function"
    },
    {
      "inputs": [
        {
          "internalType": "uint256",
          "name": "_id",
          "type": "uint256"
        }
      ],
      "name": "sellerConfirmFailedTrade",
      "outputs": [],
      "stateMutability": "nonpayable",
      "type": "function"
    },
    {
      "inputs": [
        {
          "internalType": "uint256",
          "name": "_id",
          "type": "uint256"
        }
      ],
      "name": "sellerMarkConflict",
      "outputs": [],
      "stateMutability": "nonpayable",
      "type": "function"
    },
    {
      "inputs": [
        {
          "internalType": "uint256",
          "name": "_id",
          "type": "uint256"
        }
      ],
      "name": "sellerClaimMoney",
      "outputs": [],
      "stateMutability": "nonpayable",
      "type": "function"
    },
    {
      "inputs": [
        {
          "internalType": "uint256",
          "name": "_id",
          "type": "uint256"
        },
        {
          "internalType": "bool",
          "name": "_isSuccessfulTrade",
          "type": "bool"
        }
      ],
      "name": "adminResolveConflict",
      "outputs": [],
      "stateMutability": "nonpayable",
      "type": "function"
    }
  ],
  "bytecode": "0x608060405234801561001057600080fd5b50336000806101000a81548173ffffffffffffffffffffffffffffffffffffffff021916908373ffffffffffffffffffffffffffffffffffffffff160217905550613c24806100606000396000f3fe6080604052600436106100dd5760003560e01c80636e82386e1161007f578063b117a10611610059578063b117a10614610257578063b2e6b91214610280578063e40ebc3a146102ab578063f6819ecf146102d4576100dd565b80636e82386e146101e95780638cb02ef41461021257806396463fc61461023b576100dd565b80630eaaf4c8116100bb5780630eaaf4c81461015257806321af7a811461017b5780634f63f69e146101a4578063598647f8146101cd576100dd565b80630160a13c146100e2578063093755ad1461010d57806309ec6cc714610129575b600080fd5b3480156100ee57600080fd5b506100f76102fd565b6040516101049190612cca565b60405180910390f35b61012760048036038101906101229190612d1d565b61048a565b005b34801561013557600080fd5b50610150600480360381019061014b9190612d1d565b61072b565b005b34801561015e57600080fd5b5061017960048036038101906101749190612d1d565b610ad8565b005b34801561018757600080fd5b506101a2600480360381019061019d9190612d1d565b610e07565b005b3480156101b057600080fd5b506101cb60048036038101906101c69190612d1d565b61115f565b005b6101e760048036038101906101e29190612d4a565b61144a565b005b3480156101f557600080fd5b50610210600480360381019061020b9190612dc2565b611794565b005b34801561021e57600080fd5b5061023960048036038101906102349190612d1d565b611ba2565b005b61025560048036038101906102509190612d4a565b611d61565b005b34801561026357600080fd5b5061027e60048036038101906102799190612d1d565b611f8a565b005b34801561028c57600080fd5b50610295612255565b6040516102a29190612e11565b60405180910390f35b3480156102b757600080fd5b506102d260048036038101906102cd9190612d1d565b61227e565b005b3480156102e057600080fd5b506102fb60048036038101906102f69190612d1d565b612434565b005b60606001805480602002602001604051908101604052809291908181526020016000905b8282101561048157838290600052602060002090600a020160405180610140016040529081600082015481526020016001820160009054906101000a900473ffffffffffffffffffffffffffffffffffffffff1673ffffffffffffffffffffffffffffffffffffffff1673ffffffffffffffffffffffffffffffffffffffff1681526020016002820154815260200160038201548152602001600482015481526020016005820160009054906101000a900473ffffffffffffffffffffffffffffffffffffffff1673ffffffffffffffffffffffffffffffffffffffff1673ffffffffffffffffffffffffffffffffffffffff1681526020016006820154815260200160078201548152602001600882015481526020016009820160009054906101000a900460ff16600681111561045c5761045b612b03565b5b600681111561046e5761046d612b03565b5b8152505081526020019060010190610321565b50505050905090565b60006104958261271f565b905060018054905081106104de576040517f08c379a00000000000000000000000000000000000000000000000000000000081526004016104d590612ed5565b60405180910390fd5b6000600182815481106104f4576104f3612ef5565b5b90600052602060002090600a020190508060010160009054906101000a900473ffffffffffffffffffffffffffffffffffffffff1673ffffffffffffffffffffffffffffffffffffffff163373ffffffffffffffffffffffffffffffffffffffff1614610596576040517f08c379a000000000000000000000000000000000000000000000000000000000815260040161058d90612f96565b60405180910390fd5b600073ffffffffffffffffffffffffffffffffffffffff168160050160009054906101000a900473ffffffffffffffffffffffffffffffffffffffff1673ffffffffffffffffffffffffffffffffffffffff1603610629576040517f08c379a00000000000000000000000000000000000000000000000000000000081526004016106209061304e565b60405180910390fd5b6000600681111561063d5761063c612b03565b5b8160090160009054906101000a900460ff16600681111561066157610660612b03565b5b146106a1576040517f08c379a0000000000000000000000000000000000000000000000000000000008152600401610698906130ba565b60405180910390fd5b806004015434146106e7576040517f08c379a00000000000000000000000000000000000000000000000000000000081526004016106de9061314c565b60405180910390fd5b34816004018190555042816007018190555060028160090160006101000a81548160ff0219169083600681111561072157610720612b03565b5b0217905550505050565b60006107368261271f565b9050600180549050811061077f576040517f08c379a000000000000000000000000000000000000000000000000000000000815260040161077690612ed5565b60405180910390fd5b60006001828154811061079557610794612ef5565b5b90600052602060002090600a020190508060010160009054906101000a900473ffffffffffffffffffffffffffffffffffffffff1673ffffffffffffffffffffffffffffffffffffffff163373ffffffffffffffffffffffffffffffffffffffff1614610837576040517f08c379a000000000000000000000000000000000000000000000000000000000815260040161082e90612f96565b60405180910390fd5b6000600681111561084b5761084a612b03565b5b8160090160009054906101000a900460ff16600681111561086f5761086e612b03565b5b146108af576040517f08c379a00000000000000000000000000000000000000000000000000000000081526004016108a6906130ba565b60405180910390fd5b600073ffffffffffffffffffffffffffffffffffffffff168160050160009054906101000a900473ffffffffffffffffffffffffffffffffffffffff1673ffffffffffffffffffffffffffffffffffffffff16146109f2578060050160009054906101000a900473ffffffffffffffffffffffffffffffffffffffff1673ffffffffffffffffffffffffffffffffffffffff166108fc6768155a43676e00009081150290604051600060405180830381858888f19350505050158015610979573d6000803e3d6000fd5b508060010160009054906101000a900473ffffffffffffffffffffffffffffffffffffffff1673ffffffffffffffffffffffffffffffffffffffff166108fc6722b1c8c1227a00009081150290604051600060405180830381858888f193505050501580156109ec573d6000803e3d6000fd5b50610a66565b8060010160009054906101000a900473ffffffffffffffffffffffffffffffffffffffff1673ffffffffffffffffffffffffffffffffffffffff166108fc674563918244f400009081150290604051600060405180830381858888f19350505050158015610a64573d6000803e3d6000fd5b505b60018160090160006101000a81548160ff02191690836006811115610a8e57610a8d612b03565b5b02179055507f3ed1d766118acb55327fb553e40c73aa902d6397f388d3c8abf51a1ee9f8e77e81604051610ac29190613338565b60405180910390a1610ad38261277d565b505050565b6000610ae38261271f565b90506001805490508110610b2c576040517f08c379a0000000000000000000000000000000000000000000000000000000008152600401610b2390612ed5565b60405180910390fd5b600060018281548110610b4257610b41612ef5565b5b90600052602060002090600a020190508060050160009054906101000a900473ffffffffffffffffffffffffffffffffffffffff1673ffffffffffffffffffffffffffffffffffffffff163373ffffffffffffffffffffffffffffffffffffffff1614610be4576040517f08c379a0000000000000000000000000000000000000000000000000000000008152600401610bdb90612f96565b60405180910390fd5b60006006811115610bf857610bf7612b03565b5b8160090160009054906101000a900460ff166006811115610c1c57610c1b612b03565b5b14610c5c576040517f08c379a0000000000000000000000000000000000000000000000000000000008152600401610c53906130ba565b60405180910390fd5b603c8160060154610c6d9190613383565b421015610caf576040517f08c379a0000000000000000000000000000000000000000000000000000000008152600401610ca6906134bd565b60405180910390fd5b8060050160009054906101000a900473ffffffffffffffffffffffffffffffffffffffff1673ffffffffffffffffffffffffffffffffffffffff166108fc6768155a43676e00009081150290604051600060405180830381858888f19350505050158015610d21573d6000803e3d6000fd5b508060010160009054906101000a900473ffffffffffffffffffffffffffffffffffffffff1673ffffffffffffffffffffffffffffffffffffffff166108fc6722b1c8c1227a00009081150290604051600060405180830381858888f19350505050158015610d94573d6000803e3d6000fd5b5060018160090160006101000a81548160ff02191690836006811115610dbd57610dbc612b03565b5b02179055507f3ed1d766118acb55327fb553e40c73aa902d6397f388d3c8abf51a1ee9f8e77e81604051610df19190613338565b60405180910390a1610e028261277d565b505050565b6000610e128261271f565b90506001805490508110610e5b576040517f08c379a0000000000000000000000000000000000000000000000000000000008152600401610e5290612ed5565b60405180910390fd5b600060018281548110610e7157610e70612ef5565b5b90600052602060002090600a020190508060050160009054906101000a900473ffffffffffffffffffffffffffffffffffffffff1673ffffffffffffffffffffffffffffffffffffffff163373ffffffffffffffffffffffffffffffffffffffff1614610f13576040517f08c379a0000000000000000000000000000000000000000000000000000000008152600401610f0a9061354f565b60405180910390fd5b60026006811115610f2757610f26612b03565b5b8160090160009054906101000a900460ff166006811115610f4b57610f4a612b03565b5b14610f8b576040517f08c379a0000000000000000000000000000000000000000000000000000000008152600401610f8290613607565b60405180910390fd5b603c808260030154610f9d9190613627565b8260070154610fac9190613383565b610fb69190613383565b421015610ff8576040517f08c379a0000000000000000000000000000000000000000000000000000000008152600401610fef906137b1565b60405180910390fd5b8060010160009054906101000a900473ffffffffffffffffffffffffffffffffffffffff1673ffffffffffffffffffffffffffffffffffffffff166108fc6722b1c8c1227a00009081150290604051600060405180830381858888f1935050505015801561106a573d6000803e3d6000fd5b508060050160009054906101000a900473ffffffffffffffffffffffffffffffffffffffff1673ffffffffffffffffffffffffffffffffffffffff166108fc6768155a43676e000083600401546110c19190613383565b9081150290604051600060405180830381858888f193505050501580156110ec573d6000803e3d6000fd5b5060058160090160006101000a81548160ff0219169083600681111561111557611114612b03565b5b02179055507f3ed1d766118acb55327fb553e40c73aa902d6397f388d3c8abf51a1ee9f8e77e816040516111499190613338565b60405180910390a161115a8261277d565b505050565b600061116a8261271f565b905060018054905081106111b3576040517f08c379a00000000000000000000000000000000000000000000000000000000081526004016111aa90612ed5565b60405180910390fd5b6000600182815481106111c9576111c8612ef5565b5b90600052602060002090600a020190508060050160009054906101000a900473ffffffffffffffffffffffffffffffffffffffff1673ffffffffffffffffffffffffffffffffffffffff163373ffffffffffffffffffffffffffffffffffffffff161461126b576040517f08c379a00000000000000000000000000000000000000000000000000000000081526004016112629061354f565b60405180910390fd5b6003600681111561127f5761127e612b03565b5b8160090160009054906101000a900460ff1660068111156112a3576112a2612b03565b5b146112e3576040517f08c379a00000000000000000000000000000000000000000000000000000000081526004016112da90613607565b60405180910390fd5b8060050160009054906101000a900473ffffffffffffffffffffffffffffffffffffffff1673ffffffffffffffffffffffffffffffffffffffff166108fc6722b1c8c1227a00009081150290604051600060405180830381858888f19350505050158015611355573d6000803e3d6000fd5b508060010160009054906101000a900473ffffffffffffffffffffffffffffffffffffffff1673ffffffffffffffffffffffffffffffffffffffff166108fc6768155a43676e000083600401546113ac9190613383565b9081150290604051600060405180830381858888f193505050501580156113d7573d6000803e3d6000fd5b5060068160090160006101000a81548160ff02191690836006811115611400576113ff612b03565b5b02179055507f3ed1d766118acb55327fb553e40c73aa902d6397f388d3c8abf51a1ee9f8e77e816040516114349190613338565b60405180910390a16114458261277d565b505050565b60006114558361271f565b9050600180549050811061149e576040517f08c379a000000000000000000000000000000000000000000000000000000000815260040161149590612ed5565b60405180910390fd5b6000600182815481106114b4576114b3612ef5565b5b90600052602060002090600a020190508060010160009054906101000a900473ffffffffffffffffffffffffffffffffffffffff1673ffffffffffffffffffffffffffffffffffffffff163373ffffffffffffffffffffffffffffffffffffffff1603611556576040517f08c379a000000000000000000000000000000000000000000000000000000000815260040161154d90613843565b60405180910390fd5b6000600681111561156a57611569612b03565b5b8160090160009054906101000a900460ff16600681111561158e5761158d612b03565b5b146115ce576040517f08c379a00000000000000000000000000000000000000000000000000000000081526004016115c5906130ba565b60405180910390fd5b6000816004015414806115e45750828160040154115b611623576040517f08c379a000000000000000000000000000000000000000000000000000000000815260040161161a906138d5565b60405180910390fd5b674563918244f40000341461166d576040517f08c379a000000000000000000000000000000000000000000000000000000000815260040161166490613967565b60405180910390fd5b600073ffffffffffffffffffffffffffffffffffffffff168160050160009054906101000a900473ffffffffffffffffffffffffffffffffffffffff1673ffffffffffffffffffffffffffffffffffffffff1614611739578060050160009054906101000a900473ffffffffffffffffffffffffffffffffffffffff1673ffffffffffffffffffffffffffffffffffffffff166108fc674563918244f400009081150290604051600060405180830381858888f19350505050158015611737573d6000803e3d6000fd5b505b828160040181905550338160050160006101000a81548173ffffffffffffffffffffffffffffffffffffffff021916908373ffffffffffffffffffffffffffffffffffffffff16021790555042816006018190555050505050565b60008054906101000a900473ffffffffffffffffffffffffffffffffffffffff1673ffffffffffffffffffffffffffffffffffffffff163373ffffffffffffffffffffffffffffffffffffffff1614611822576040517f08c379a0000000000000000000000000000000000000000000000000000000008152600401611819906139f9565b60405180910390fd5b600061182d8361271f565b90506001805490508110611876576040517f08c379a000000000000000000000000000000000000000000000000000000000815260040161186d90612ed5565b60405180910390fd5b60006001828154811061188c5761188b612ef5565b5b90600052602060002090600a02019050600460068111156118b0576118af612b03565b5b8160090160009054906101000a900460ff1660068111156118d4576118d3612b03565b5b14611914576040517f08c379a000000000000000000000000000000000000000000000000000000000815260040161190b90613607565b60405180910390fd5b8215611a3d5760008054906101000a900473ffffffffffffffffffffffffffffffffffffffff1673ffffffffffffffffffffffffffffffffffffffff166108fc6722b1c8c1227a00009081150290604051600060405180830381858888f19350505050158015611988573d6000803e3d6000fd5b508060050160009054906101000a900473ffffffffffffffffffffffffffffffffffffffff1673ffffffffffffffffffffffffffffffffffffffff166108fc6768155a43676e000083600401546119df9190613383565b9081150290604051600060405180830381858888f19350505050158015611a0a573d6000803e3d6000fd5b5060058160090160006101000a81548160ff02191690836006811115611a3357611a32612b03565b5b0217905550611b5c565b60008054906101000a900473ffffffffffffffffffffffffffffffffffffffff1673ffffffffffffffffffffffffffffffffffffffff166108fc6722b1c8c1227a00009081150290604051600060405180830381858888f19350505050158015611aab573d6000803e3d6000fd5b508060010160009054906101000a900473ffffffffffffffffffffffffffffffffffffffff1673ffffffffffffffffffffffffffffffffffffffff166108fc6768155a43676e00008360040154611b029190613383565b9081150290604051600060405180830381858888f19350505050158015611b2d573d6000803e3d6000fd5b5060068160090160006101000a81548160ff02191690836006811115611b5657611b55612b03565b5b02179055505b7f3ed1d766118acb55327fb553e40c73aa902d6397f388d3c8abf51a1ee9f8e77e81604051611b8b9190613338565b60405180910390a1611b9c8261277d565b50505050565b6000611bad8261271f565b90506001805490508110611bf6576040517f08c379a0000000000000000000000000000000000000000000000000000000008152600401611bed90612ed5565b60405180910390fd5b600060018281548110611c0c57611c0b612ef5565b5b90600052602060002090600a020190508060010160009054906101000a900473ffffffffffffffffffffffffffffffffffffffff1673ffffffffffffffffffffffffffffffffffffffff163373ffffffffffffffffffffffffffffffffffffffff1614611cae576040517f08c379a0000000000000000000000000000000000000000000000000000000008152600401611ca59061354f565b60405180910390fd5b60026006811115611cc257611cc1612b03565b5b8160090160009054906101000a900460ff166006811115611ce657611ce5612b03565b5b14611d26576040517f08c379a0000000000000000000000000000000000000000000000000000000008152600401611d1d90613607565b60405180910390fd5b42816008018190555060038160090160006101000a81548160ff02191690836006811115611d5757611d56612b03565b5b0217905550505050565b674563918244f400003414611dab576040517f08c379a0000000000000000000000000000000000000000000000000000000008152600401611da290613967565b60405180910390fd5b611db36129ec565b60026000815480929190611dc690613a19565b9190505581600001818152505033816020019073ffffffffffffffffffffffffffffffffffffffff16908173ffffffffffffffffffffffffffffffffffffffff1681525050828160400181815250508181606001818152505060008161012001906006811115611e3957611e38612b03565b5b90816006811115611e4d57611e4c612b03565b5b8152505060018190806001815401808255809150506001900390600052602060002090600a02016000909190919091506000820151816000015560208201518160010160006101000a81548173ffffffffffffffffffffffffffffffffffffffff021916908373ffffffffffffffffffffffffffffffffffffffff16021790555060408201518160020155606082015181600301556080820151816004015560a08201518160050160006101000a81548173ffffffffffffffffffffffffffffffffffffffff021916908373ffffffffffffffffffffffffffffffffffffffff16021790555060c0820151816006015560e0820151816007015561010082015181600801556101208201518160090160006101000a81548160ff02191690836006811115611f7e57611f7d612b03565b5b02179055505050505050565b6000611f958261271f565b90506001805490508110611fde576040517f08c379a0000000000000000000000000000000000000000000000000000000008152600401611fd590612ed5565b60405180910390fd5b600060018281548110611ff457611ff3612ef5565b5b90600052602060002090600a020190508060010160009054906101000a900473ffffffffffffffffffffffffffffffffffffffff1673ffffffffffffffffffffffffffffffffffffffff163373ffffffffffffffffffffffffffffffffffffffff1614612096576040517f08c379a000000000000000000000000000000000000000000000000000000000815260040161208d9061354f565b60405180910390fd5b600360068111156120aa576120a9612b03565b5b8160090160009054906101000a900460ff1660068111156120ce576120cd612b03565b5b1461210e576040517f08c379a000000000000000000000000000000000000000000000000000000000815260040161210590613607565b60405180910390fd5b60b4816008015461211f9190613383565b421015612161576040517f08c379a000000000000000000000000000000000000000000000000000000000815260040161215890613b6b565b60405180910390fd5b8060010160009054906101000a900473ffffffffffffffffffffffffffffffffffffffff1673ffffffffffffffffffffffffffffffffffffffff166108fc678ac7230489e8000083600401546121b79190613383565b9081150290604051600060405180830381858888f193505050501580156121e2573d6000803e3d6000fd5b5060068160090160006101000a81548160ff0219169083600681111561220b5761220a612b03565b5b02179055507f3ed1d766118acb55327fb553e40c73aa902d6397f388d3c8abf51a1ee9f8e77e8160405161223f9190613338565b60405180910390a16122508261277d565b505050565b60008060009054906101000a900473ffffffffffffffffffffffffffffffffffffffff16905090565b60006122898261271f565b905060018054905081106122d2576040517f08c379a00000000000000000000000000000000000000000000000000000000081526004016122c990612ed5565b60405180910390fd5b6000600182815481106122e8576122e7612ef5565b5b90600052602060002090600a020190508060050160009054906101000a900473ffffffffffffffffffffffffffffffffffffffff1673ffffffffffffffffffffffffffffffffffffffff163373ffffffffffffffffffffffffffffffffffffffff161461238a576040517f08c379a00000000000000000000000000000000000000000000000000000000081526004016123819061354f565b60405180910390fd5b6003600681111561239e5761239d612b03565b5b8160090160009054906101000a900460ff1660068111156123c2576123c1612b03565b5b14612402576040517f08c379a00000000000000000000000000000000000000000000000000000000081526004016123f990613607565b60405180910390fd5b60048160090160006101000a81548160ff0219169083600681111561242a57612429612b03565b5b0217905550505050565b600061243f8261271f565b90506001805490508110612488576040517f08c379a000000000000000000000000000000000000000000000000000000000815260040161247f90612ed5565b60405180910390fd5b60006001828154811061249e5761249d612ef5565b5b90600052602060002090600a020190508060010160009054906101000a900473ffffffffffffffffffffffffffffffffffffffff1673ffffffffffffffffffffffffffffffffffffffff163373ffffffffffffffffffffffffffffffffffffffff1614612540576040517f08c379a00000000000000000000000000000000000000000000000000000000081526004016125379061354f565b60405180910390fd5b6002600681111561255457612553612b03565b5b8160090160009054906101000a900460ff16600681111561257857612577612b03565b5b146125b8576040517f08c379a00000000000000000000000000000000000000000000000000000000081526004016125af90613607565b60405180910390fd5b8060050160009054906101000a900473ffffffffffffffffffffffffffffffffffffffff1673ffffffffffffffffffffffffffffffffffffffff166108fc674563918244f40000836004015461260e9190613383565b9081150290604051600060405180830381858888f19350505050158015612639573d6000803e3d6000fd5b508060010160009054906101000a900473ffffffffffffffffffffffffffffffffffffffff1673ffffffffffffffffffffffffffffffffffffffff166108fc674563918244f400009081150290604051600060405180830381858888f193505050501580156126ac573d6000803e3d6000fd5b5060058160090160006101000a81548160ff021916908360068111156126d5576126d4612b03565b5b02179055507f3ed1d766118acb55327fb553e40c73aa902d6397f388d3c8abf51a1ee9f8e77e816040516127099190613338565b60405180910390a161271a8261277d565b505050565b600080600090505b60018054905081101561277457826001828154811061274957612748612ef5565b5b90600052602060002090600a020160000154031561277457808061276c90613a19565b915050612727565b80915050919050565b600180808054905061278f9190613b8b565b815481106127a05761279f612ef5565b5b90600052602060002090600a0201600182815481106127c2576127c1612ef5565b5b90600052602060002090600a0201600082015481600001556001820160009054906101000a900473ffffffffffffffffffffffffffffffffffffffff168160010160006101000a81548173ffffffffffffffffffffffffffffffffffffffff021916908373ffffffffffffffffffffffffffffffffffffffff1602179055506002820154816002015560038201548160030155600482015481600401556005820160009054906101000a900473ffffffffffffffffffffffffffffffffffffffff168160050160006101000a81548173ffffffffffffffffffffffffffffffffffffffff021916908373ffffffffffffffffffffffffffffffffffffffff1602179055506006820154816006015560078201548160070155600882015481600801556009820160009054906101000a900460ff168160090160006101000a81548160ff0219169083600681111561291c5761291b612b03565b5b0217905550905050600180548061293657612935613bbf565b5b60019003818190600052602060002090600a02016000808201600090556001820160006101000a81549073ffffffffffffffffffffffffffffffffffffffff02191690556002820160009055600382016000905560048201600090556005820160006101000a81549073ffffffffffffffffffffffffffffffffffffffff02191690556006820160009055600782016000905560088201600090556009820160006101000a81549060ff02191690555050905550565b60405180610140016040528060008152602001600073ffffffffffffffffffffffffffffffffffffffff168152602001600081526020016000815260200160008152602001600073ffffffffffffffffffffffffffffffffffffffff16815260200160008152602001600081526020016000815260200160006006811115612a7757612a76612b03565b5b81525090565b600081519050919050565b600082825260208201905092915050565b6000819050602082019050919050565b6000819050919050565b612abc81612aa9565b82525050565b600073ffffffffffffffffffffffffffffffffffffffff82169050919050565b6000612aed82612ac2565b9050919050565b612afd81612ae2565b82525050565b7f4e487b7100000000000000000000000000000000000000000000000000000000600052602160045260246000fd5b60078110612b4357612b42612b03565b5b50565b6000819050612b5482612b32565b919050565b6000612b6482612b46565b9050919050565b612b7481612b59565b82525050565b61014082016000820151612b916000850182612ab3565b506020820151612ba46020850182612af4565b506040820151612bb76040850182612ab3565b506060820151612bca6060850182612ab3565b506080820151612bdd6080850182612ab3565b5060a0820151612bf060a0850182612af4565b5060c0820151612c0360c0850182612ab3565b5060e0820151612c1660e0850182612ab3565b50610100820151612c2b610100850182612ab3565b50610120820151612c40610120850182612b6b565b50505050565b6000612c528383612b7a565b6101408301905092915050565b6000602082019050919050565b6000612c7782612a7d565b612c818185612a88565b9350612c8c83612a99565b8060005b83811015612cbd578151612ca48882612c46565b9750612caf83612c5f565b925050600181019050612c90565b5085935050505092915050565b60006020820190508181036000830152612ce48184612c6c565b905092915050565b600080fd5b612cfa81612aa9565b8114612d0557600080fd5b50565b600081359050612d1781612cf1565b92915050565b600060208284031215612d3357612d32612cec565b5b6000612d4184828501612d08565b91505092915050565b60008060408385031215612d6157612d60612cec565b5b6000612d6f85828601612d08565b9250506020612d8085828601612d08565b9150509250929050565b60008115159050919050565b612d9f81612d8a565b8114612daa57600080fd5b50565b600081359050612dbc81612d96565b92915050565b60008060408385031215612dd957612dd8612cec565b5b6000612de785828601612d08565b9250506020612df885828601612dad565b9150509250929050565b612e0b81612ae2565b82525050565b6000602082019050612e266000830184612e02565b92915050565b600082825260208201905092915050565b7f5472616465204e6f7420466f756e6420284d6f73742070726f6261626c79206960008201527f742773206e6f206c6f6e676572206f70656e65642c20636865636b20636c6f7360208201527f6564207472616465732129000000000000000000000000000000000000000000604082015250565b6000612ebf604b83612e2c565b9150612eca82612e3d565b606082019050919050565b60006020820190508181036000830152612eee81612eb2565b9050919050565b7f4e487b7100000000000000000000000000000000000000000000000000000000600052603260045260246000fd5b7f596f75206172656e277420616c6c6f77656420746f20706572666f726d20746860008201527f697320616374696f6e0000000000000000000000000000000000000000000000602082015250565b6000612f80602983612e2c565b9150612f8b82612f24565b604082019050919050565b60006020820190508181036000830152612faf81612f73565b9050919050565b7f596f752063616e6e6f7420656e642062696464696e6720696620796f7520686160008201527f76656e277420726563656976656420616e79206269642e20557365202243616e60208201527f63656c2220696e73746561640000000000000000000000000000000000000000604082015250565b6000613038604c83612e2c565b915061304382612fb6565b606082019050919050565b600060208201905081810360008301526130678161302b565b9050919050565b7f5468652062696464696e672068617320616c726561647920656e646564000000600082015250565b60006130a4601d83612e2c565b91506130af8261306e565b602082019050919050565b600060208201905081810360008301526130d381613097565b9050919050565b7f596f75206d757374207472616e7366657220746865206d6f6e657920696e206160008201527f6476616e63650000000000000000000000000000000000000000000000000000602082015250565b6000613136602683612e2c565b9150613141826130da565b604082019050919050565b6000602082019050818103600083015261316581613129565b9050919050565b60008160001c9050919050565b6000819050919050565b60006131966131918361316c565b613179565b9050919050565b600073ffffffffffffffffffffffffffffffffffffffff82169050919050565b60006131d06131cb8361316c565b61319d565b9050919050565b600060ff82169050919050565b60006131f76131f28361316c565b6131d7565b9050919050565b6101408201600080830154905061321481613183565b6132216000860182612ab3565b5060018301549050613232816131bd565b61323f6020860182612af4565b506002830154905061325081613183565b61325d6040860182612ab3565b506003830154905061326e81613183565b61327b6060860182612ab3565b506004830154905061328c81613183565b6132996080860182612ab3565b50600583015490506132aa816131bd565b6132b760a0860182612af4565b50600683015490506132c881613183565b6132d560c0860182612ab3565b50600783015490506132e681613183565b6132f360e0860182612ab3565b506008830154905061330481613183565b613312610100860182612ab3565b5060098301549050613323816131e4565b613331610120860182612b6b565b5050505050565b60006101408201905061334e60008301846131fe565b92915050565b7f4e487b7100000000000000000000000000000000000000000000000000000000600052601160045260246000fd5b600061338e82612aa9565b915061339983612aa9565b9250827fffffffffffffffffffffffffffffffffffffffffffffffffffffffffffffffff038211156133ce576133cd613354565b5b828201905092915050565b7f596f752063616e20776974686472617720796f757220626964204f4e4c59206960008201527f66207468652063726561746f72206f66207468697320747261646520646f657360208201527f6e277420656e642062696464696e672077697468696e2031206d696e7574652060408201527f66726f6d207468652074696d6520796f75207375636365737366756c6c79207060608201527f6c6163656420796f757220626964000000000000000000000000000000000000608082015250565b60006134a7608e83612e2c565b91506134b2826133d9565b60a082019050919050565b600060208201905081810360008301526134d68161349a565b9050919050565b7f596f75277265206e6f7420616c6c6f77656420746f20706572666f726d20746860008201527f697320616374696f6e2100000000000000000000000000000000000000000000602082015250565b6000613539602a83612e2c565b9150613544826134dd565b604082019050919050565b600060208201905081810360008301526135688161352c565b9050919050565b7f5468652063757272656e7420737461747573206f66207468652074726164652060008201527f646f65736e2774207065726d697420796f7520746f20706572666f726d20746860208201527f697320616374696f6e0000000000000000000000000000000000000000000000604082015250565b60006135f1604983612e2c565b91506135fc8261356f565b606082019050919050565b60006020820190508181036000830152613620816135e4565b9050919050565b600061363282612aa9565b915061363d83612aa9565b9250817fffffffffffffffffffffffffffffffffffffffffffffffffffffffffffffffff048311821515161561367657613675613354565b5b828202905092915050565b7f596f752063616e20636c61696d20796f7572206d6f6e6579206261636b206f6e60008201527f6c792069662074686520627579657220646f65736e277420636f6e6669726d2060208201527f73756363657373206e6f72206d61726b2074686520747261646520617320612060408201527f6661696c6564206f6e652077697468696e206f6e65206d696e7574652061667460608201527f657220746865206e756d626572206f66206d696e75746573207370656369666960808201527f656420696e20746865207472616465207374617274696e672066726f6d20746860a08201527f652074696d6520686520656e646564207468652062696464696e67000000000060c082015250565b600061379b60db83612e2c565b91506137a682613681565b60e082019050919050565b600060208201905081810360008301526137ca8161378e565b9050919050565b7f596f752063616e277420626964206f6e206120747261646520796f752068617660008201527f6520637265617465642121000000000000000000000000000000000000000000602082015250565b600061382d602b83612e2c565b9150613838826137d1565b604082019050919050565b6000602082019050818103600083015261385c81613820565b9050919050565b7f546865726520697320616c72656164792061206c6f776572206f72206571756160008201527f6c20626964210000000000000000000000000000000000000000000000000000602082015250565b60006138bf602683612e2c565b91506138ca82613863565b604082019050919050565b600060208201905081810360008301526138ee816138b2565b9050919050565b7f596f75206d7573742073656e6420612076616c7565206f66203520455448206160008201527f73206465706f7369742100000000000000000000000000000000000000000000602082015250565b6000613951602a83612e2c565b915061395c826138f5565b604082019050919050565b6000602082019050818103600083015261398081613944565b9050919050565b7f4f6e6c792061646d696e20697320616c6c6f77656420746f20706572666f726d60008201527f207468697320616374696f6e2100000000000000000000000000000000000000602082015250565b60006139e3602d83612e2c565b91506139ee82613987565b604082019050919050565b60006020820190508181036000830152613a12816139d6565b9050919050565b6000613a2482612aa9565b91507fffffffffffffffffffffffffffffffffffffffffffffffffffffffffffffffff8203613a5657613a55613354565b5b600182019050919050565b7f596f752063616e20636c61696d20796f7572206d6f6e6579206261636b206f6e60008201527f6c79206966207468652073656c6c657220646f65736e277420636f6e6669726d60208201527f206661696c757265206e6f7220726571756573742061646d696e277320696e7460408201527f657276656e74696f6e2077697468696e2033206d696e757465732066726f6d2060608201527f7468652074696d65207468697320747261646520776173206d61726b6564206160808201527f73204661696c656420627920796f75000000000000000000000000000000000060a082015250565b6000613b5560af83612e2c565b9150613b6082613a61565b60c082019050919050565b60006020820190508181036000830152613b8481613b48565b9050919050565b6000613b9682612aa9565b9150613ba183612aa9565b925082821015613bb457613bb3613354565b5b828203905092915050565b7f4e487b7100000000000000000000000000000000000000000000000000000000600052603160045260246000fdfea2646970667358221220c3e0c2d4792012efc3d8c71a16d010ba1dd1bed5975f0edbc2b832677ae4571464736f6c634300080f0033",
  "immutableReferences": {},
  "source": "// SPDX-License-Identifier: MIT\npragma solidity >=0.7.0 <0.9.0;\n\nenum Status { RUNNING, CANCELED, PENDING_BUYER_CONFIRMATION, PENDING_SELLER_CONFIRMATION, CONFLICT, SUCCESSFUL, FAILED }\n\nstruct Trade {\n    uint id; \n    address buyer;\n    uint amountEnergyNeeded;\n    uint numOfMins;\n    uint sellingPrice;\n    address seller;\n    uint bidAt;\n    uint biddingEndedAt;\n    uint markedFailedAt;\n    Status status;\n}\n\ncontract EnergyTrading {\n    address private admin;\n    constructor() { admin = msg.sender; }\n    function getAdminAddress() external view returns(address) {\n        return admin;\n    }\n    modifier onlyAdmin() {\n        require(msg.sender == admin, \"Only admin is allowed to perform this action!\");\n        _;\n    }\n    \n    // variable holding the state of the smart contract\n    Trade[] private openedTrades;\n    uint private currentNumOfAllTrades;\n\n    // event triggered whenever a trade is closed\n    event TradeClosed(Trade trade);\n\n    // private functions (only to be used by other SC functions)\n    function findTrade(uint _id) private view returns(uint) {\n        uint i = 0;\n        for (; i < openedTrades.length; i++) {\n            if (openedTrades[i].id == _id) {\n                break;\n            }      \n        }\n        return i;\n    }\n    \n    function removeFromOpenedTrades(uint _index) private {\n        openedTrades[_index] = openedTrades[openedTrades.length - 1];\n        openedTrades.pop();\n    }\n\n    // External functions\n    function fetchAllOpenedTrades() external view returns(Trade[] memory) { return openedTrades; }\n    function createTrade(uint _amountEnergyNeeded, uint _numOfMins) external payable {\n        require(msg.value == 5000000000000000000, \"You must send a value of 5 ETH as deposit!\");\n        Trade memory newTrade;\n        newTrade.id = currentNumOfAllTrades++;\n        newTrade.buyer = msg.sender;\n        newTrade.amountEnergyNeeded = _amountEnergyNeeded;\n        newTrade.numOfMins = _numOfMins;\n        newTrade.status = Status.RUNNING;\n        openedTrades.push(newTrade);\n    }\n\n    function cancelTrade(uint _id) external {\n        uint tradeIndex = findTrade(_id);\n        require(tradeIndex < openedTrades.length, \"Trade Not Found (Most probably it's no longer opened, check closed trades!)\");\n        Trade storage targetedTrade = openedTrades[tradeIndex];\n        require(msg.sender == targetedTrade.buyer, \"You aren't allowed to perform this action\");\n        require(targetedTrade.status == Status.RUNNING, \"The bidding has already ended\");\n\n        if (targetedTrade.seller != address(0)) {\n            payable(targetedTrade.seller).transfer(7500000000000000000); // 7.5 ETH\n            payable(targetedTrade.buyer).transfer(2500000000000000000); // 2.5 ETH\n        } else {\n            payable(targetedTrade.buyer).transfer(5000000000000000000); // 5 ETH\n        }\n        targetedTrade.status = Status.CANCELED;\n        emit TradeClosed({trade: targetedTrade});\n        removeFromOpenedTrades(tradeIndex);\n    }\n\n    function bid(uint _id, uint _price) external payable {\n        uint tradeIndex = findTrade(_id);\n        require(tradeIndex < openedTrades.length, \"Trade Not Found (Most probably it's no longer opened, check closed trades!)\");\n        Trade storage targetedTrade = openedTrades[tradeIndex];\n        require(msg.sender != targetedTrade.buyer, \"You can't bid on a trade you have created!!\");\n        require(targetedTrade.status == Status.RUNNING, \"The bidding has already ended\");\n        require(targetedTrade.sellingPrice == 0 || targetedTrade.sellingPrice > _price, \"There is already a lower or equal bid!\");\n        require(msg.value == 5000000000000000000, \"You must send a value of 5 ETH as deposit!\");\n\n        if (targetedTrade.seller != address(0)) {\n            payable(targetedTrade.seller).transfer(5000000000000000000); // 5 ETH (deposit)\n        }\n        targetedTrade.sellingPrice = _price;\n        targetedTrade.seller = msg.sender;\n        targetedTrade.bidAt = block.timestamp;\n    }\n\n    function withdrawBid(uint _id) external {\n        uint tradeIndex = findTrade(_id);\n        require(tradeIndex < openedTrades.length, \"Trade Not Found (Most probably it's no longer opened, check closed trades!)\");\n        Trade storage targetedTrade = openedTrades[tradeIndex];\n        require(msg.sender == targetedTrade.seller, \"You aren't allowed to perform this action\");\n        require(targetedTrade.status == Status.RUNNING, \"The bidding has already ended\");\n        require(block.timestamp >= targetedTrade.bidAt + 60, \"You can withdraw your bid ONLY if the creator of this trade doesn't end bidding within 1 minute from the time you successfully placed your bid\");\n\n        payable(targetedTrade.seller).transfer(7500000000000000000); // 7.5 ETH\n        payable(targetedTrade.buyer).transfer(2500000000000000000); // 2.5 ETH\n        targetedTrade.status = Status.CANCELED;\n        emit TradeClosed({trade: targetedTrade});\n        removeFromOpenedTrades(tradeIndex);\n    }\n\n    function endBidding(uint _id) external payable {\n        uint tradeIndex = findTrade(_id);\n        require(tradeIndex < openedTrades.length, \"Trade Not Found (Most probably it's no longer opened, check closed trades!)\");\n        Trade storage targetedTrade = openedTrades[tradeIndex];\n        require(msg.sender == targetedTrade.buyer, \"You aren't allowed to perform this action\");\n        require(targetedTrade.seller != address(0), \"You cannot end bidding if you haven't received any bid. Use \\\"Cancel\\\" instead\");\n        require(targetedTrade.status == Status.RUNNING, \"The bidding has already ended\");\n        require(msg.value == targetedTrade.sellingPrice, \"You must transfer the money in advance\");\n\n        targetedTrade.sellingPrice = msg.value;\n        targetedTrade.biddingEndedAt = block.timestamp;\n        targetedTrade.status = Status.PENDING_BUYER_CONFIRMATION;        \n        /** We may emit an event here, if we want to notify an IoT component that is listening to this kind of event to act accordingly (Start tranfering energy!) */\n    }\n\n    function buyerConfirmSuccessfulTrade(uint _id) external {\n        uint tradeIndex = findTrade(_id);\n        require(tradeIndex < openedTrades.length, \"Trade Not Found (Most probably it's no longer opened, check closed trades!)\");\n        Trade storage targetedTrade = openedTrades[tradeIndex];\n        require(msg.sender == targetedTrade.buyer, \"You're not allowed to perform this action!\");\n        require(targetedTrade.status == Status.PENDING_BUYER_CONFIRMATION, \"The current status of the trade doesn't permit you to perform this action\");\n\n        payable(targetedTrade.seller).transfer(targetedTrade.sellingPrice + 5000000000000000000); // selling price + 5 ETH (deposit)\n        payable(targetedTrade.buyer).transfer(5000000000000000000); // 5 ETH (deposit)\n        targetedTrade.status = Status.SUCCESSFUL;\n        emit TradeClosed({trade: targetedTrade});\n        removeFromOpenedTrades(tradeIndex);       \n    }\n\n    function buyerMarkFailedTrade(uint _id) external {\n        uint tradeIndex = findTrade(_id);\n        require(tradeIndex < openedTrades.length, \"Trade Not Found (Most probably it's no longer opened, check closed trades!)\");\n        Trade storage targetedTrade = openedTrades[tradeIndex];\n        require(msg.sender == targetedTrade.buyer, \"You're not allowed to perform this action!\");\n        require(targetedTrade.status == Status.PENDING_BUYER_CONFIRMATION, \"The current status of the trade doesn't permit you to perform this action\");\n\n        targetedTrade.markedFailedAt = block.timestamp;\n        targetedTrade.status = Status.PENDING_SELLER_CONFIRMATION;\n    }\n\n    function buyerClaimMoneyBack(uint _id) external {\n        uint tradeIndex = findTrade(_id);\n        require(tradeIndex < openedTrades.length, \"Trade Not Found (Most probably it's no longer opened, check closed trades!)\");\n        Trade storage targetedTrade = openedTrades[tradeIndex];\n        require(msg.sender == targetedTrade.buyer, \"You're not allowed to perform this action!\");\n        require(targetedTrade.status == Status.PENDING_SELLER_CONFIRMATION, \"The current status of the trade doesn't permit you to perform this action\");\n        require(block.timestamp >= targetedTrade.markedFailedAt + 3 * 60, \"You can claim your money back only if the seller doesn't confirm failure nor request admin's intervention within 3 minutes from the time this trade was marked as Failed by you\");\n\n        payable(targetedTrade.buyer).transfer(targetedTrade.sellingPrice + 10000000000000000000); // selling price + 10 ETH (buyer's deposit + seller's deposit)\n        targetedTrade.status = Status.FAILED;\n        emit TradeClosed({trade: targetedTrade});\n        removeFromOpenedTrades(tradeIndex);          \n    }\n    \n    function sellerConfirmFailedTrade(uint _id) external {\n        uint tradeIndex = findTrade(_id);\n        require(tradeIndex < openedTrades.length, \"Trade Not Found (Most probably it's no longer opened, check closed trades!)\");\n        Trade storage targetedTrade = openedTrades[tradeIndex];\n        require(msg.sender == targetedTrade.seller, \"You're not allowed to perform this action!\");\n        require(targetedTrade.status == Status.PENDING_SELLER_CONFIRMATION, \"The current status of the trade doesn't permit you to perform this action\");\n\n        payable(targetedTrade.seller).transfer(2500000000000000000); // 2.5 ETH (50% of seller deposit)\n        payable(targetedTrade.buyer).transfer(targetedTrade.sellingPrice + 7500000000000000000); // refund + 7.5 ETH (buyer deposit + 50% of seller deposit)\n        targetedTrade.status = Status.FAILED;\n        emit TradeClosed({trade: targetedTrade});\n        removeFromOpenedTrades(tradeIndex);\n    } \n\n    function sellerMarkConflict(uint _id) external {\n        uint tradeIndex = findTrade(_id);\n        require(tradeIndex < openedTrades.length, \"Trade Not Found (Most probably it's no longer opened, check closed trades!)\");\n        Trade storage targetedTrade = openedTrades[tradeIndex];\n        require(msg.sender == targetedTrade.seller, \"You're not allowed to perform this action!\");\n        require(targetedTrade.status == Status.PENDING_SELLER_CONFIRMATION, \"The current status of the trade doesn't permit you to perform this action\");\n\n        targetedTrade.status = Status.CONFLICT;\n    }\n\n    function sellerClaimMoney(uint _id) external {\n        uint tradeIndex = findTrade(_id);\n        require(tradeIndex < openedTrades.length, \"Trade Not Found (Most probably it's no longer opened, check closed trades!)\");\n        Trade storage targetedTrade = openedTrades[tradeIndex];\n        require(msg.sender == targetedTrade.seller, \"You're not allowed to perform this action!\");\n        require(targetedTrade.status == Status.PENDING_BUYER_CONFIRMATION, \"The current status of the trade doesn't permit you to perform this action\");\n        require(block.timestamp >= targetedTrade.biddingEndedAt + targetedTrade.numOfMins * 60 + 60, \"You can claim your money back only if the buyer doesn't confirm success nor mark the trade as a failed one within one minute after the number of minutes specified in the trade starting from the time he ended the bidding\");\n\n        payable(targetedTrade.buyer).transfer(2500000000000000000); // 2.5 ETH (50% of buyer deposit)\n        payable(targetedTrade.seller).transfer(targetedTrade.sellingPrice + 7500000000000000000); // selling price + 7.5 ETH (seller deposit + 50% of buyer deposit)\n        targetedTrade.status = Status.SUCCESSFUL;\n        emit TradeClosed({trade: targetedTrade});\n        removeFromOpenedTrades(tradeIndex);\n    }\n\n    function adminResolveConflict(uint _id, bool _isSuccessfulTrade) onlyAdmin external {\n        uint tradeIndex = findTrade(_id);\n        require(tradeIndex < openedTrades.length, \"Trade Not Found (Most probably it's no longer opened, check closed trades!)\");\n        Trade storage targetedTrade = openedTrades[tradeIndex];\n        require(targetedTrade.status == Status.CONFLICT, \"The current status of the trade doesn't permit you to perform this action\");\n        \n        if (_isSuccessfulTrade) {\n            payable(admin).transfer(2500000000000000000); // 2.5 ETH (50% of buyer deposit)\n            payable(targetedTrade.seller).transfer(targetedTrade.sellingPrice + 7500000000000000000); // selling price + 7.5 ETH (seller deposit + 50% of buyer deposit)\n            targetedTrade.status = Status.SUCCESSFUL;\n        } else {\n            payable(admin).transfer(2500000000000000000); // 2.5 ETH (50% of seller deposit)\n            payable(targetedTrade.buyer).transfer(targetedTrade.sellingPrice + 7500000000000000000); // refund + 7.5 ETH (buyer deposit + 50% of seller deposit)\n            targetedTrade.status = Status.FAILED;\n        }\n        emit TradeClosed({trade: targetedTrade});\n        removeFromOpenedTrades(tradeIndex);\n    }\n}\n\n\n// require(findTrade(_id) == openedTrades.length, \"ERROR: Transation reverted.\");\n\n",
  "sourcePath": "C:\\Users\\hany2\\Documents\\Coding\\FYP_ENERGY_TRADING_ETHEREUM\\contracts\\EnergyTrading.sol",
  "compiler": {
    "name": "solc",
    "version": "0.8.15+commit.e14f2714.Emscripten.clang"
  },
  "schemaVersion": "3.4.7",
  "updatedAt": "2022-06-30T02:02:07.540Z",
  "networkType": "ethereum",
  "devdoc": {
    "kind": "dev",
    "methods": {},
    "version": 1
  },
  "userdoc": {
    "kind": "user",
    "methods": {},
    "version": 1
  }
}